{
	"contracts/test.sol": {
		"MyToken": {
			"abi": [
				{
					"inputs": [],
					"stateMutability": "nonpayable",
					"type": "constructor"
				},
				{
					"anonymous": false,
					"inputs": [
						{
							"indexed": true,
							"internalType": "address",
							"name": "owner",
							"type": "address"
						},
						{
							"indexed": true,
							"internalType": "address",
							"name": "spender",
							"type": "address"
						},
						{
							"indexed": false,
							"internalType": "uint256",
							"name": "value",
							"type": "uint256"
						}
					],
					"name": "Approval",
					"type": "event"
				},
				{
					"anonymous": false,
					"inputs": [
						{
							"indexed": true,
							"internalType": "address",
							"name": "from",
							"type": "address"
						},
						{
							"indexed": true,
							"internalType": "address",
							"name": "to",
							"type": "address"
						},
						{
							"indexed": false,
							"internalType": "uint256",
							"name": "value",
							"type": "uint256"
						}
					],
					"name": "Transfer",
					"type": "event"
				},
				{
					"inputs": [
						{
							"internalType": "address",
							"name": "_student",
							"type": "address"
						},
						{
							"internalType": "uint256",
							"name": "_marks",
							"type": "uint256"
						}
					],
					"name": "addMarks",
					"outputs": [],
					"stateMutability": "nonpayable",
					"type": "function"
				},
				{
					"inputs": [
						{
							"internalType": "address",
							"name": "_student",
							"type": "address"
						},
						{
							"internalType": "int256",
							"name": "_ID",
							"type": "int256"
						},
						{
							"internalType": "string",
							"name": "_fName",
							"type": "string"
						}
					],
					"name": "addStudentRecord",
					"outputs": [],
					"stateMutability": "nonpayable",
					"type": "function"
				},
				{
					"inputs": [
						{
							"internalType": "address",
							"name": "",
							"type": "address"
						},
						{
							"internalType": "address",
							"name": "",
							"type": "address"
						}
					],
					"name": "allowance",
					"outputs": [
						{
							"internalType": "uint256",
							"name": "",
							"type": "uint256"
						}
					],
					"stateMutability": "view",
					"type": "function"
				},
				{
					"inputs": [
						{
							"internalType": "address",
							"name": "_spender",
							"type": "address"
						},
						{
							"internalType": "uint256",
							"name": "_value",
							"type": "uint256"
						}
					],
					"name": "approve",
					"outputs": [
						{
							"internalType": "bool",
							"name": "success",
							"type": "bool"
						}
					],
					"stateMutability": "nonpayable",
					"type": "function"
				},
				{
					"inputs": [
						{
							"internalType": "address",
							"name": "",
							"type": "address"
						}
					],
					"name": "balanceOf",
					"outputs": [
						{
							"internalType": "uint256",
							"name": "",
							"type": "uint256"
						}
					],
					"stateMutability": "view",
					"type": "function"
				},
				{
					"inputs": [],
					"name": "decimals",
					"outputs": [
						{
							"internalType": "uint8",
							"name": "",
							"type": "uint8"
						}
					],
					"stateMutability": "view",
					"type": "function"
				},
				{
					"inputs": [
						{
							"internalType": "address",
							"name": "",
							"type": "address"
						}
					],
					"name": "marks",
					"outputs": [
						{
							"internalType": "uint256",
							"name": "",
							"type": "uint256"
						}
					],
					"stateMutability": "view",
					"type": "function"
				},
				{
					"inputs": [],
					"name": "name",
					"outputs": [
						{
							"internalType": "string",
							"name": "",
							"type": "string"
						}
					],
					"stateMutability": "view",
					"type": "function"
				},
				{
					"inputs": [
						{
							"internalType": "address",
							"name": "_student",
							"type": "address"
						}
					],
					"name": "rewardTokens",
					"outputs": [],
					"stateMutability": "nonpayable",
					"type": "function"
				},
				{
					"inputs": [
						{
							"internalType": "address",
							"name": "",
							"type": "address"
						}
					],
					"name": "students",
					"outputs": [
						{
							"internalType": "bool",
							"name": "",
							"type": "bool"
						}
					],
					"stateMutability": "view",
					"type": "function"
				},
				{
					"inputs": [],
					"name": "symbol",
					"outputs": [
						{
							"internalType": "string",
							"name": "",
							"type": "string"
						}
					],
					"stateMutability": "view",
					"type": "function"
				},
				{
					"inputs": [],
					"name": "totalSupply",
					"outputs": [
						{
							"internalType": "uint256",
							"name": "",
							"type": "uint256"
						}
					],
					"stateMutability": "view",
					"type": "function"
				},
				{
					"inputs": [
						{
							"internalType": "address",
							"name": "_to",
							"type": "address"
						},
						{
							"internalType": "uint256",
							"name": "_value",
							"type": "uint256"
						}
					],
					"name": "transfer",
					"outputs": [
						{
							"internalType": "bool",
							"name": "success",
							"type": "bool"
						}
					],
					"stateMutability": "nonpayable",
					"type": "function"
				},
				{
					"inputs": [
						{
							"internalType": "address",
							"name": "_from",
							"type": "address"
						},
						{
							"internalType": "address",
							"name": "_to",
							"type": "address"
						},
						{
							"internalType": "uint256",
							"name": "_value",
							"type": "uint256"
						}
					],
					"name": "transferFrom",
					"outputs": [
						{
							"internalType": "bool",
							"name": "success",
							"type": "bool"
						}
					],
					"stateMutability": "nonpayable",
					"type": "function"
				}
			],
			"devdoc": {
				"kind": "dev",
				"methods": {},
				"version": 1
			},
			"evm": {
				"assembly": "    /* \"contracts/test.sol\":61:2666  contract MyToken {\r... */\n  mstore(0x40, 0x80)\n    /* \"contracts/test.sol\":85:116  string public name = \"My Token\" */\n  mload(0x40)\n  dup1\n  0x40\n  add\n  0x40\n  mstore\n  dup1\n  0x08\n  dup2\n  mstore\n  0x20\n  add\n  0x4d7920546f6b656e000000000000000000000000000000000000000000000000\n  dup2\n  mstore\n  pop\n  0x00\n  swap1\n  dup1\n  mload\n  swap1\n  0x20\n  add\n  swap1\n  tag_1\n  swap3\n  swap2\n  swap1\n  tag_2\n  jump\t// in\ntag_1:\n  pop\n    /* \"contracts/test.sol\":123:151  string public symbol = \"MTK\" */\n  mload(0x40)\n  dup1\n  0x40\n  add\n  0x40\n  mstore\n  dup1\n  0x03\n  dup2\n  mstore\n  0x20\n  add\n  0x4d544b0000000000000000000000000000000000000000000000000000000000\n  dup2\n  mstore\n  pop\n  0x01\n  swap1\n  dup1\n  mload\n  swap1\n  0x20\n  add\n  swap1\n  tag_3\n  swap3\n  swap2\n  swap1\n  tag_2\n  jump\t// in\ntag_3:\n  pop\n    /* \"contracts/test.sol\":182:183  8 */\n  0x08\n    /* \"contracts/test.sol\":158:183  uint8 public decimals = 8 */\n  0x02\n  exp(0x0100, 0x00)\n  dup2\n  sload\n  dup2\n  0xff\n  mul\n  not\n  and\n  swap1\n  dup4\n  0xff\n  and\n  mul\n  or\n  swap1\n  sstore\n  pop\n    /* \"contracts/test.sol\":241:249  decimals */\n  0x02\n  0x00\n  swap1\n  sload\n  swap1\n  0x0100\n  exp\n  swap1\n  div\n  0xff\n  and\n    /* \"contracts/test.sol\":233:250  uint256(decimals) */\n  0xff\n  and\n    /* \"contracts/test.sol\":229:231  10 */\n  0x0a\n    /* \"contracts/test.sol\":229:250  10**uint256(decimals) */\n  tag_4\n  swap2\n  swap1\n  tag_5\n  jump\t// in\ntag_4:\n    /* \"contracts/test.sol\":219:226  1000000 */\n  0x0f4240\n    /* \"contracts/test.sol\":219:250  1000000 * 10**uint256(decimals) */\n  tag_6\n  swap2\n  swap1\n  tag_7\n  jump\t// in\ntag_6:\n    /* \"contracts/test.sol\":190:250  uint256 public totalSupply = 1000000 * 10**uint256(decimals) */\n  0x03\n  sstore\n    /* \"contracts/test.sol\":741:809  constructor() {\r... */\n  callvalue\n  dup1\n  iszero\n  tag_8\n  jumpi\n  0x00\n  dup1\n  revert\ntag_8:\n  pop\n    /* \"contracts/test.sol\":790:801  totalSupply */\n  sload(0x03)\n    /* \"contracts/test.sol\":766:775  balanceOf */\n  0x04\n    /* \"contracts/test.sol\":766:787  balanceOf[msg.sender] */\n  0x00\n    /* \"contracts/test.sol\":776:786  msg.sender */\n  caller\n    /* \"contracts/test.sol\":766:787  balanceOf[msg.sender] */\n  0xffffffffffffffffffffffffffffffffffffffff\n  and\n  0xffffffffffffffffffffffffffffffffffffffff\n  and\n  dup2\n  mstore\n  0x20\n  add\n  swap1\n  dup2\n  mstore\n  0x20\n  add\n  0x00\n  keccak256\n    /* \"contracts/test.sol\":766:801  balanceOf[msg.sender] = totalSupply */\n  dup2\n  swap1\n  sstore\n  pop\n    /* \"contracts/test.sol\":61:2666  contract MyToken {\r... */\n  jump(tag_11)\ntag_2:\n  dup3\n  dup1\n  sload\n  tag_12\n  swap1\n  tag_13\n  jump\t// in\ntag_12:\n  swap1\n  0x00\n  mstore\n  keccak256(0x00, 0x20)\n  swap1\n  0x1f\n  add\n  0x20\n  swap1\n  div\n  dup2\n  add\n  swap3\n  dup3\n  tag_15\n  jumpi\n  0x00\n  dup6\n  sstore\n  jump(tag_14)\ntag_15:\n  dup3\n  0x1f\n  lt\n  tag_16\n  jumpi\n  dup1\n  mload\n  not(0xff)\n  and\n  dup4\n  dup1\n  add\n  or\n  dup6\n  sstore\n  jump(tag_14)\ntag_16:\n  dup3\n  dup1\n  add\n  0x01\n  add\n  dup6\n  sstore\n  dup3\n  iszero\n  tag_14\n  jumpi\n  swap2\n  dup3\n  add\ntag_17:\n  dup3\n  dup2\n  gt\n  iszero\n  tag_18\n  jumpi\n  dup3\n  mload\n  dup3\n  sstore\n  swap2\n  0x20\n  add\n  swap2\n  swap1\n  0x01\n  add\n  swap1\n  jump(tag_17)\ntag_18:\ntag_14:\n  pop\n  swap1\n  pop\n  tag_19\n  swap2\n  swap1\n  tag_20\n  jump\t// in\ntag_19:\n  pop\n  swap1\n  jump\t// out\ntag_20:\ntag_21:\n  dup1\n  dup3\n  gt\n  iszero\n  tag_22\n  jumpi\n  0x00\n  dup2\n  0x00\n  swap1\n  sstore\n  pop\n  0x01\n  add\n  jump(tag_21)\ntag_22:\n  pop\n  swap1\n  jump\t// out\n    /* \"#utility.yul\":7:855   */\ntag_24:\n    /* \"#utility.yul\":68:73   */\n  0x00\n    /* \"#utility.yul\":75:79   */\n  dup1\n    /* \"#utility.yul\":99:105   */\n  dup3\n    /* \"#utility.yul\":90:105   */\n  swap2\n  pop\n    /* \"#utility.yul\":123:128   */\n  dup4\n    /* \"#utility.yul\":114:128   */\n  swap1\n  pop\n    /* \"#utility.yul\":137:849   */\ntag_26:\n    /* \"#utility.yul\":158:159   */\n  0x01\n    /* \"#utility.yul\":148:156   */\n  dup6\n    /* \"#utility.yul\":145:160   */\n  gt\n    /* \"#utility.yul\":137:849   */\n  iszero\n  tag_28\n  jumpi\n    /* \"#utility.yul\":253:257   */\n  dup1\n    /* \"#utility.yul\":248:251   */\n  dup7\n    /* \"#utility.yul\":244:258   */\n  div\n    /* \"#utility.yul\":238:242   */\n  dup2\n    /* \"#utility.yul\":235:259   */\n  gt\n    /* \"#utility.yul\":232:282   */\n  iszero\n  tag_29\n  jumpi\n    /* \"#utility.yul\":262:280   */\n  tag_30\n  tag_31\n  jump\t// in\ntag_30:\n    /* \"#utility.yul\":232:282   */\ntag_29:\n    /* \"#utility.yul\":312:313   */\n  0x01\n    /* \"#utility.yul\":302:310   */\n  dup6\n    /* \"#utility.yul\":298:314   */\n  and\n    /* \"#utility.yul\":295:746   */\n  iszero\n  tag_32\n  jumpi\n    /* \"#utility.yul\":727:731   */\n  dup1\n    /* \"#utility.yul\":720:725   */\n  dup3\n    /* \"#utility.yul\":716:732   */\n  mul\n    /* \"#utility.yul\":707:732   */\n  swap2\n  pop\n    /* \"#utility.yul\":295:746   */\ntag_32:\n    /* \"#utility.yul\":777:781   */\n  dup1\n    /* \"#utility.yul\":771:775   */\n  dup2\n    /* \"#utility.yul\":767:782   */\n  mul\n    /* \"#utility.yul\":759:782   */\n  swap1\n  pop\n    /* \"#utility.yul\":807:839   */\n  tag_33\n    /* \"#utility.yul\":830:838   */\n  dup6\n    /* \"#utility.yul\":807:839   */\n  tag_34\n  jump\t// in\ntag_33:\n    /* \"#utility.yul\":795:839   */\n  swap5\n  pop\n    /* \"#utility.yul\":137:849   */\n  jump(tag_26)\ntag_28:\n    /* \"#utility.yul\":7:855   */\n  swap5\n  pop\n  swap5\n  swap3\n  pop\n  pop\n  pop\n  jump\t// out\n    /* \"#utility.yul\":861:1146   */\ntag_5:\n    /* \"#utility.yul\":921:926   */\n  0x00\n    /* \"#utility.yul\":945:968   */\n  tag_36\n    /* \"#utility.yul\":963:967   */\n  dup3\n    /* \"#utility.yul\":945:968   */\n  tag_37\n  jump\t// in\ntag_36:\n    /* \"#utility.yul\":937:968   */\n  swap2\n  pop\n    /* \"#utility.yul\":989:1016   */\n  tag_38\n    /* \"#utility.yul\":1007:1015   */\n  dup4\n    /* \"#utility.yul\":989:1016   */\n  tag_37\n  jump\t// in\ntag_38:\n    /* \"#utility.yul\":977:1016   */\n  swap3\n  pop\n    /* \"#utility.yul\":1035:1139   */\n  tag_39\n    /* \"#utility.yul\":1072:1138   */\n  0xffffffffffffffffffffffffffffffffffffffffffffffffffffffffffffffff\n    /* \"#utility.yul\":1062:1070   */\n  dup5\n    /* \"#utility.yul\":1056:1060   */\n  dup5\n    /* \"#utility.yul\":1035:1139   */\n  tag_40\n  jump\t// in\ntag_39:\n    /* \"#utility.yul\":1026:1139   */\n  swap1\n  pop\n    /* \"#utility.yul\":861:1146   */\n  swap3\n  swap2\n  pop\n  pop\n  jump\t// out\n    /* \"#utility.yul\":1152:2225   */\ntag_40:\n    /* \"#utility.yul\":1206:1211   */\n  0x00\n    /* \"#utility.yul\":1397:1405   */\n  dup3\n    /* \"#utility.yul\":1387:1427   */\n  tag_42\n  jumpi\n    /* \"#utility.yul\":1418:1419   */\n  0x01\n    /* \"#utility.yul\":1409:1419   */\n  swap1\n  pop\n    /* \"#utility.yul\":1420:1425   */\n  jump(tag_41)\n    /* \"#utility.yul\":1387:1427   */\ntag_42:\n    /* \"#utility.yul\":1446:1450   */\n  dup2\n    /* \"#utility.yul\":1436:1472   */\n  tag_43\n  jumpi\n    /* \"#utility.yul\":1463:1464   */\n  0x00\n    /* \"#utility.yul\":1454:1464   */\n  swap1\n  pop\n    /* \"#utility.yul\":1465:1470   */\n  jump(tag_41)\n    /* \"#utility.yul\":1436:1472   */\ntag_43:\n    /* \"#utility.yul\":1532:1536   */\n  dup2\n    /* \"#utility.yul\":1580:1581   */\n  0x01\n    /* \"#utility.yul\":1575:1602   */\n  dup2\n  eq\n  tag_45\n  jumpi\n    /* \"#utility.yul\":1616:1617   */\n  0x02\n    /* \"#utility.yul\":1611:1802   */\n  dup2\n  eq\n  tag_46\n  jumpi\n    /* \"#utility.yul\":1525:1802   */\n  jump(tag_44)\n    /* \"#utility.yul\":1575:1602   */\ntag_45:\n    /* \"#utility.yul\":1593:1594   */\n  0x01\n    /* \"#utility.yul\":1584:1594   */\n  swap2\n  pop\n    /* \"#utility.yul\":1595:1600   */\n  pop\n  jump(tag_41)\n    /* \"#utility.yul\":1611:1802   */\ntag_46:\n    /* \"#utility.yul\":1656:1659   */\n  0xff\n    /* \"#utility.yul\":1646:1654   */\n  dup5\n    /* \"#utility.yul\":1643:1660   */\n  gt\n    /* \"#utility.yul\":1640:1683   */\n  iszero\n  tag_47\n  jumpi\n    /* \"#utility.yul\":1663:1681   */\n  tag_48\n  tag_31\n  jump\t// in\ntag_48:\n    /* \"#utility.yul\":1640:1683   */\ntag_47:\n    /* \"#utility.yul\":1712:1720   */\n  dup4\n    /* \"#utility.yul\":1709:1710   */\n  0x02\n    /* \"#utility.yul\":1705:1721   */\n  exp\n    /* \"#utility.yul\":1696:1721   */\n  swap2\n  pop\n    /* \"#utility.yul\":1747:1750   */\n  dup5\n    /* \"#utility.yul\":1740:1745   */\n  dup3\n    /* \"#utility.yul\":1737:1751   */\n  gt\n    /* \"#utility.yul\":1734:1774   */\n  iszero\n  tag_49\n  jumpi\n    /* \"#utility.yul\":1754:1772   */\n  tag_50\n  tag_31\n  jump\t// in\ntag_50:\n    /* \"#utility.yul\":1734:1774   */\ntag_49:\n    /* \"#utility.yul\":1787:1792   */\n  pop\n  jump(tag_41)\n    /* \"#utility.yul\":1525:1802   */\ntag_44:\n  pop\n    /* \"#utility.yul\":1911:1913   */\n  0x20\n    /* \"#utility.yul\":1901:1909   */\n  dup4\n    /* \"#utility.yul\":1898:1914   */\n  lt\n    /* \"#utility.yul\":1892:1895   */\n  0x0133\n    /* \"#utility.yul\":1886:1890   */\n  dup4\n    /* \"#utility.yul\":1883:1896   */\n  lt\n    /* \"#utility.yul\":1879:1915   */\n  and\n    /* \"#utility.yul\":1861:1863   */\n  0x4e\n    /* \"#utility.yul\":1851:1859   */\n  dup5\n    /* \"#utility.yul\":1848:1864   */\n  lt\n    /* \"#utility.yul\":1843:1845   */\n  0x0b\n    /* \"#utility.yul\":1837:1841   */\n  dup5\n    /* \"#utility.yul\":1834:1846   */\n  lt\n    /* \"#utility.yul\":1830:1865   */\n  and\n    /* \"#utility.yul\":1814:1925   */\n  or\n    /* \"#utility.yul\":1811:2057   */\n  iszero\n  tag_51\n  jumpi\n    /* \"#utility.yul\":1967:1975   */\n  dup3\n    /* \"#utility.yul\":1961:1965   */\n  dup3\n    /* \"#utility.yul\":1957:1976   */\n  exp\n    /* \"#utility.yul\":1948:1976   */\n  swap1\n  pop\n    /* \"#utility.yul\":2002:2005   */\n  dup4\n    /* \"#utility.yul\":1995:2000   */\n  dup2\n    /* \"#utility.yul\":1992:2006   */\n  gt\n    /* \"#utility.yul\":1989:2029   */\n  iszero\n  tag_52\n  jumpi\n    /* \"#utility.yul\":2009:2027   */\n  tag_53\n  tag_31\n  jump\t// in\ntag_53:\n    /* \"#utility.yul\":1989:2029   */\ntag_52:\n    /* \"#utility.yul\":2042:2047   */\n  jump(tag_41)\n    /* \"#utility.yul\":1811:2057   */\ntag_51:\n    /* \"#utility.yul\":2082:2124   */\n  tag_54\n    /* \"#utility.yul\":2120:2123   */\n  dup5\n    /* \"#utility.yul\":2110:2118   */\n  dup5\n    /* \"#utility.yul\":2104:2108   */\n  dup5\n    /* \"#utility.yul\":2101:2102   */\n  0x01\n    /* \"#utility.yul\":2082:2124   */\n  tag_24\n  jump\t// in\ntag_54:\n    /* \"#utility.yul\":2067:2124   */\n  swap3\n  pop\n  swap1\n  pop\n    /* \"#utility.yul\":2156:2160   */\n  dup2\n    /* \"#utility.yul\":2151:2154   */\n  dup5\n    /* \"#utility.yul\":2147:2161   */\n  div\n    /* \"#utility.yul\":2140:2145   */\n  dup2\n    /* \"#utility.yul\":2137:2162   */\n  gt\n    /* \"#utility.yul\":2134:2185   */\n  iszero\n  tag_55\n  jumpi\n    /* \"#utility.yul\":2165:2183   */\n  tag_56\n  tag_31\n  jump\t// in\ntag_56:\n    /* \"#utility.yul\":2134:2185   */\ntag_55:\n    /* \"#utility.yul\":2214:2218   */\n  dup2\n    /* \"#utility.yul\":2207:2212   */\n  dup2\n    /* \"#utility.yul\":2203:2219   */\n  mul\n    /* \"#utility.yul\":2194:2219   */\n  swap1\n  pop\n    /* \"#utility.yul\":1152:2225   */\ntag_41:\n  swap4\n  swap3\n  pop\n  pop\n  pop\n  jump\t// out\n    /* \"#utility.yul\":2231:2579   */\ntag_7:\n    /* \"#utility.yul\":2271:2278   */\n  0x00\n    /* \"#utility.yul\":2294:2314   */\n  tag_58\n    /* \"#utility.yul\":2312:2313   */\n  dup3\n    /* \"#utility.yul\":2294:2314   */\n  tag_37\n  jump\t// in\ntag_58:\n    /* \"#utility.yul\":2289:2314   */\n  swap2\n  pop\n    /* \"#utility.yul\":2328:2348   */\n  tag_59\n    /* \"#utility.yul\":2346:2347   */\n  dup4\n    /* \"#utility.yul\":2328:2348   */\n  tag_37\n  jump\t// in\ntag_59:\n    /* \"#utility.yul\":2323:2348   */\n  swap3\n  pop\n    /* \"#utility.yul\":2516:2517   */\n  dup2\n    /* \"#utility.yul\":2448:2514   */\n  0xffffffffffffffffffffffffffffffffffffffffffffffffffffffffffffffff\n    /* \"#utility.yul\":2444:2518   */\n  div\n    /* \"#utility.yul\":2441:2442   */\n  dup4\n    /* \"#utility.yul\":2438:2519   */\n  gt\n    /* \"#utility.yul\":2433:2434   */\n  dup3\n    /* \"#utility.yul\":2426:2435   */\n  iszero\n    /* \"#utility.yul\":2419:2436   */\n  iszero\n    /* \"#utility.yul\":2415:2520   */\n  and\n    /* \"#utility.yul\":2412:2543   */\n  iszero\n  tag_60\n  jumpi\n    /* \"#utility.yul\":2523:2541   */\n  tag_61\n  tag_31\n  jump\t// in\ntag_61:\n    /* \"#utility.yul\":2412:2543   */\ntag_60:\n    /* \"#utility.yul\":2571:2572   */\n  dup3\n    /* \"#utility.yul\":2568:2569   */\n  dup3\n    /* \"#utility.yul\":2564:2573   */\n  mul\n    /* \"#utility.yul\":2553:2573   */\n  swap1\n  pop\n    /* \"#utility.yul\":2231:2579   */\n  swap3\n  swap2\n  pop\n  pop\n  jump\t// out\n    /* \"#utility.yul\":2585:2662   */\ntag_37:\n    /* \"#utility.yul\":2622:2629   */\n  0x00\n    /* \"#utility.yul\":2651:2656   */\n  dup2\n    /* \"#utility.yul\":2640:2656   */\n  swap1\n  pop\n    /* \"#utility.yul\":2585:2662   */\n  swap2\n  swap1\n  pop\n  jump\t// out\n    /* \"#utility.yul\":2668:2988   */\ntag_13:\n    /* \"#utility.yul\":2712:2718   */\n  0x00\n    /* \"#utility.yul\":2749:2750   */\n  0x02\n    /* \"#utility.yul\":2743:2747   */\n  dup3\n    /* \"#utility.yul\":2739:2751   */\n  div\n    /* \"#utility.yul\":2729:2751   */\n  swap1\n  pop\n    /* \"#utility.yul\":2796:2797   */\n  0x01\n    /* \"#utility.yul\":2790:2794   */\n  dup3\n    /* \"#utility.yul\":2786:2798   */\n  and\n    /* \"#utility.yul\":2817:2835   */\n  dup1\n    /* \"#utility.yul\":2807:2888   */\n  tag_64\n  jumpi\n    /* \"#utility.yul\":2873:2877   */\n  0x7f\n    /* \"#utility.yul\":2865:2871   */\n  dup3\n    /* \"#utility.yul\":2861:2878   */\n  and\n    /* \"#utility.yul\":2851:2878   */\n  swap2\n  pop\n    /* \"#utility.yul\":2807:2888   */\ntag_64:\n    /* \"#utility.yul\":2935:2937   */\n  0x20\n    /* \"#utility.yul\":2927:2933   */\n  dup3\n    /* \"#utility.yul\":2924:2938   */\n  lt\n    /* \"#utility.yul\":2904:2922   */\n  dup2\n    /* \"#utility.yul\":2901:2939   */\n  eq\n    /* \"#utility.yul\":2898:2982   */\n  iszero\n  tag_65\n  jumpi\n    /* \"#utility.yul\":2954:2972   */\n  tag_66\n  tag_67\n  jump\t// in\ntag_66:\n    /* \"#utility.yul\":2898:2982   */\ntag_65:\n    /* \"#utility.yul\":2719:2988   */\n  pop\n    /* \"#utility.yul\":2668:2988   */\n  swap2\n  swap1\n  pop\n  jump\t// out\n    /* \"#utility.yul\":2994:3174   */\ntag_31:\n    /* \"#utility.yul\":3042:3119   */\n  0x4e487b7100000000000000000000000000000000000000000000000000000000\n    /* \"#utility.yul\":3039:3040   */\n  0x00\n    /* \"#utility.yul\":3032:3120   */\n  mstore\n    /* \"#utility.yul\":3139:3143   */\n  0x11\n    /* \"#utility.yul\":3136:3137   */\n  0x04\n    /* \"#utility.yul\":3129:3144   */\n  mstore\n    /* \"#utility.yul\":3163:3167   */\n  0x24\n    /* \"#utility.yul\":3160:3161   */\n  0x00\n    /* \"#utility.yul\":3153:3168   */\n  revert\n    /* \"#utility.yul\":3180:3360   */\ntag_67:\n    /* \"#utility.yul\":3228:3305   */\n  0x4e487b7100000000000000000000000000000000000000000000000000000000\n    /* \"#utility.yul\":3225:3226   */\n  0x00\n    /* \"#utility.yul\":3218:3306   */\n  mstore\n    /* \"#utility.yul\":3325:3329   */\n  0x22\n    /* \"#utility.yul\":3322:3323   */\n  0x04\n    /* \"#utility.yul\":3315:3330   */\n  mstore\n    /* \"#utility.yul\":3349:3353   */\n  0x24\n    /* \"#utility.yul\":3346:3347   */\n  0x00\n    /* \"#utility.yul\":3339:3354   */\n  revert\n    /* \"#utility.yul\":3366:3468   */\ntag_34:\n    /* \"#utility.yul\":3408:3416   */\n  0x00\n    /* \"#utility.yul\":3455:3460   */\n  dup2\n    /* \"#utility.yul\":3452:3453   */\n  0x01\n    /* \"#utility.yul\":3448:3461   */\n  shr\n    /* \"#utility.yul\":3427:3461   */\n  swap1\n  pop\n    /* \"#utility.yul\":3366:3468   */\n  swap2\n  swap1\n  pop\n  jump\t// out\n    /* \"contracts/test.sol\":61:2666  contract MyToken {\r... */\ntag_11:\n  dataSize(sub_0)\n  dup1\n  dataOffset(sub_0)\n  0x00\n  codecopy\n  0x00\n  return\nstop\n\nsub_0: assembly {\n        /* \"contracts/test.sol\":61:2666  contract MyToken {\r... */\n      mstore(0x40, 0x80)\n      callvalue\n      dup1\n      iszero\n      tag_1\n      jumpi\n      0x00\n      dup1\n      revert\n    tag_1:\n      pop\n      jumpi(tag_2, lt(calldatasize, 0x04))\n      shr(0xe0, calldataload(0x00))\n      dup1\n      0x61990fdc\n      gt\n      tag_17\n      jumpi\n      dup1\n      0xa6c807a9\n      gt\n      tag_18\n      jumpi\n      dup1\n      0xa6c807a9\n      eq\n      tag_13\n      jumpi\n      dup1\n      0xa9059cbb\n      eq\n      tag_14\n      jumpi\n      dup1\n      0xdd62ed3e\n      eq\n      tag_15\n      jumpi\n      dup1\n      0xf5ab16cc\n      eq\n      tag_16\n      jumpi\n      jump(tag_2)\n    tag_18:\n      dup1\n      0x61990fdc\n      eq\n      tag_10\n      jumpi\n      dup1\n      0x70a08231\n      eq\n      tag_11\n      jumpi\n      dup1\n      0x95d89b41\n      eq\n      tag_12\n      jumpi\n      jump(tag_2)\n    tag_17:\n      dup1\n      0x18160ddd\n      gt\n      tag_19\n      jumpi\n      dup1\n      0x18160ddd\n      eq\n      tag_6\n      jumpi\n      dup1\n      0x1b1a1e24\n      eq\n      tag_7\n      jumpi\n      dup1\n      0x23b872dd\n      eq\n      tag_8\n      jumpi\n      dup1\n      0x313ce567\n      eq\n      tag_9\n      jumpi\n      jump(tag_2)\n    tag_19:\n      dup1\n      0x06fdde03\n      eq\n      tag_3\n      jumpi\n      dup1\n      0x095ea7b3\n      eq\n      tag_4\n      jumpi\n      dup1\n      0x0aab30a9\n      eq\n      tag_5\n      jumpi\n    tag_2:\n      0x00\n      dup1\n      revert\n        /* \"contracts/test.sol\":85:116  string public name = \"My Token\" */\n    tag_3:\n      tag_20\n      tag_21\n      jump\t// in\n    tag_20:\n      mload(0x40)\n      tag_22\n      swap2\n      swap1\n      tag_23\n      jump\t// in\n    tag_22:\n      mload(0x40)\n      dup1\n      swap2\n      sub\n      swap1\n      return\n        /* \"contracts/test.sol\":1757:1973  function approve(address _spender, uint256 _value) public returns (bool success) {\r... */\n    tag_4:\n      tag_24\n      0x04\n      dup1\n      calldatasize\n      sub\n      dup2\n      add\n      swap1\n      tag_25\n      swap2\n      swap1\n      tag_26\n      jump\t// in\n    tag_25:\n      tag_27\n      jump\t// in\n    tag_24:\n      mload(0x40)\n      tag_28\n      swap2\n      swap1\n      tag_29\n      jump\t// in\n    tag_28:\n      mload(0x40)\n      dup1\n      swap2\n      sub\n      swap1\n      return\n        /* \"contracts/test.sol\":1981:2176  function addStudentRecord(address _student, int _ID, string memory _fName) public {\r... */\n    tag_5:\n      tag_30\n      0x04\n      dup1\n      calldatasize\n      sub\n      dup2\n      add\n      swap1\n      tag_31\n      swap2\n      swap1\n      tag_32\n      jump\t// in\n    tag_31:\n      tag_33\n      jump\t// in\n    tag_30:\n      stop\n        /* \"contracts/test.sol\":190:250  uint256 public totalSupply = 1000000 * 10**uint256(decimals) */\n    tag_6:\n      tag_34\n      tag_35\n      jump\t// in\n    tag_34:\n      mload(0x40)\n      tag_36\n      swap2\n      swap1\n      tag_37\n      jump\t// in\n    tag_36:\n      mload(0x40)\n      dup1\n      swap2\n      sub\n      swap1\n      return\n        /* \"contracts/test.sol\":436:477  mapping (address => uint256) public marks */\n    tag_7:\n      tag_38\n      0x04\n      dup1\n      calldatasize\n      sub\n      dup2\n      add\n      swap1\n      tag_39\n      swap2\n      swap1\n      tag_40\n      jump\t// in\n    tag_39:\n      tag_41\n      jump\t// in\n    tag_38:\n      mload(0x40)\n      tag_42\n      swap2\n      swap1\n      tag_37\n      jump\t// in\n    tag_42:\n      mload(0x40)\n      dup1\n      swap2\n      sub\n      swap1\n      return\n        /* \"contracts/test.sol\":1476:1749  function transferFrom(address _from, address _to, uint256 _value) public returns (bool success) {\r... */\n    tag_8:\n      tag_43\n      0x04\n      dup1\n      calldatasize\n      sub\n      dup2\n      add\n      swap1\n      tag_44\n      swap2\n      swap1\n      tag_45\n      jump\t// in\n    tag_44:\n      tag_46\n      jump\t// in\n    tag_43:\n      mload(0x40)\n      tag_47\n      swap2\n      swap1\n      tag_29\n      jump\t// in\n    tag_47:\n      mload(0x40)\n      dup1\n      swap2\n      sub\n      swap1\n      return\n        /* \"contracts/test.sol\":158:183  uint8 public decimals = 8 */\n    tag_9:\n      tag_48\n      tag_49\n      jump\t// in\n    tag_48:\n      mload(0x40)\n      tag_50\n      swap2\n      swap1\n      tag_51\n      jump\t// in\n    tag_50:\n      mload(0x40)\n      dup1\n      swap2\n      sub\n      swap1\n      return\n        /* \"contracts/test.sol\":2184:2325  function addMarks(address _student, uint256 _marks) public {\r... */\n    tag_10:\n      tag_52\n      0x04\n      dup1\n      calldatasize\n      sub\n      dup2\n      add\n      swap1\n      tag_53\n      swap2\n      swap1\n      tag_26\n      jump\t// in\n    tag_53:\n      tag_54\n      jump\t// in\n    tag_52:\n      stop\n        /* \"contracts/test.sol\":259:304  mapping (address => uint256) public balanceOf */\n    tag_11:\n      tag_55\n      0x04\n      dup1\n      calldatasize\n      sub\n      dup2\n      add\n      swap1\n      tag_56\n      swap2\n      swap1\n      tag_40\n      jump\t// in\n    tag_56:\n      tag_57\n      jump\t// in\n    tag_55:\n      mload(0x40)\n      tag_58\n      swap2\n      swap1\n      tag_37\n      jump\t// in\n    tag_58:\n      mload(0x40)\n      dup1\n      swap2\n      sub\n      swap1\n      return\n        /* \"contracts/test.sol\":123:151  string public symbol = \"MTK\" */\n    tag_12:\n      tag_59\n      tag_60\n      jump\t// in\n    tag_59:\n      mload(0x40)\n      tag_61\n      swap2\n      swap1\n      tag_23\n      jump\t// in\n    tag_61:\n      mload(0x40)\n      dup1\n      swap2\n      sub\n      swap1\n      return\n        /* \"contracts/test.sol\":388:429  mapping (address => bool) public students */\n    tag_13:\n      tag_62\n      0x04\n      dup1\n      calldatasize\n      sub\n      dup2\n      add\n      swap1\n      tag_63\n      swap2\n      swap1\n      tag_40\n      jump\t// in\n    tag_63:\n      tag_64\n      jump\t// in\n    tag_62:\n      mload(0x40)\n      tag_65\n      swap2\n      swap1\n      tag_29\n      jump\t// in\n    tag_65:\n      mload(0x40)\n      dup1\n      swap2\n      sub\n      swap1\n      return\n        /* \"contracts/test.sol\":1316:1468  function transfer(address _to, uint256 _value) public returns (bool success) {\r... */\n    tag_14:\n      tag_66\n      0x04\n      dup1\n      calldatasize\n      sub\n      dup2\n      add\n      swap1\n      tag_67\n      swap2\n      swap1\n      tag_26\n      jump\t// in\n    tag_67:\n      tag_68\n      jump\t// in\n    tag_66:\n      mload(0x40)\n      tag_69\n      swap2\n      swap1\n      tag_29\n      jump\t// in\n    tag_69:\n      mload(0x40)\n      dup1\n      swap2\n      sub\n      swap1\n      return\n        /* \"contracts/test.sol\":313:379  mapping (address => mapping (address => uint256)) public allowance */\n    tag_15:\n      tag_70\n      0x04\n      dup1\n      calldatasize\n      sub\n      dup2\n      add\n      swap1\n      tag_71\n      swap2\n      swap1\n      tag_72\n      jump\t// in\n    tag_71:\n      tag_73\n      jump\t// in\n    tag_70:\n      mload(0x40)\n      tag_74\n      swap2\n      swap1\n      tag_37\n      jump\t// in\n    tag_74:\n      mload(0x40)\n      dup1\n      swap2\n      sub\n      swap1\n      return\n        /* \"contracts/test.sol\":2333:2663  function rewardTokens(address _student) public {\r... */\n    tag_16:\n      tag_75\n      0x04\n      dup1\n      calldatasize\n      sub\n      dup2\n      add\n      swap1\n      tag_76\n      swap2\n      swap1\n      tag_40\n      jump\t// in\n    tag_76:\n      tag_77\n      jump\t// in\n    tag_75:\n      stop\n        /* \"contracts/test.sol\":85:116  string public name = \"My Token\" */\n    tag_21:\n      0x00\n      dup1\n      sload\n      tag_78\n      swap1\n      tag_79\n      jump\t// in\n    tag_78:\n      dup1\n      0x1f\n      add\n      0x20\n      dup1\n      swap2\n      div\n      mul\n      0x20\n      add\n      mload(0x40)\n      swap1\n      dup2\n      add\n      0x40\n      mstore\n      dup1\n      swap3\n      swap2\n      swap1\n      dup2\n      dup2\n      mstore\n      0x20\n      add\n      dup3\n      dup1\n      sload\n      tag_80\n      swap1\n      tag_79\n      jump\t// in\n    tag_80:\n      dup1\n      iszero\n      tag_81\n      jumpi\n      dup1\n      0x1f\n      lt\n      tag_82\n      jumpi\n      0x0100\n      dup1\n      dup4\n      sload\n      div\n      mul\n      dup4\n      mstore\n      swap2\n      0x20\n      add\n      swap2\n      jump(tag_81)\n    tag_82:\n      dup3\n      add\n      swap2\n      swap1\n      0x00\n      mstore\n      keccak256(0x00, 0x20)\n      swap1\n    tag_83:\n      dup2\n      sload\n      dup2\n      mstore\n      swap1\n      0x01\n      add\n      swap1\n      0x20\n      add\n      dup1\n      dup4\n      gt\n      tag_83\n      jumpi\n      dup3\n      swap1\n      sub\n      0x1f\n      and\n      dup3\n      add\n      swap2\n    tag_81:\n      pop\n      pop\n      pop\n      pop\n      pop\n      dup2\n      jump\t// out\n        /* \"contracts/test.sol\":1757:1973  function approve(address _spender, uint256 _value) public returns (bool success) {\r... */\n    tag_27:\n        /* \"contracts/test.sol\":1824:1836  bool success */\n      0x00\n        /* \"contracts/test.sol\":1883:1889  _value */\n      dup2\n        /* \"contracts/test.sol\":1849:1858  allowance */\n      0x05\n        /* \"contracts/test.sol\":1849:1870  allowance[msg.sender] */\n      0x00\n        /* \"contracts/test.sol\":1859:1869  msg.sender */\n      caller\n        /* \"contracts/test.sol\":1849:1870  allowance[msg.sender] */\n      0xffffffffffffffffffffffffffffffffffffffff\n      and\n      0xffffffffffffffffffffffffffffffffffffffff\n      and\n      dup2\n      mstore\n      0x20\n      add\n      swap1\n      dup2\n      mstore\n      0x20\n      add\n      0x00\n      keccak256\n        /* \"contracts/test.sol\":1849:1880  allowance[msg.sender][_spender] */\n      0x00\n        /* \"contracts/test.sol\":1871:1879  _spender */\n      dup6\n        /* \"contracts/test.sol\":1849:1880  allowance[msg.sender][_spender] */\n      0xffffffffffffffffffffffffffffffffffffffff\n      and\n      0xffffffffffffffffffffffffffffffffffffffff\n      and\n      dup2\n      mstore\n      0x20\n      add\n      swap1\n      dup2\n      mstore\n      0x20\n      add\n      0x00\n      keccak256\n        /* \"contracts/test.sol\":1849:1889  allowance[msg.sender][_spender] = _value */\n      dup2\n      swap1\n      sstore\n      pop\n        /* \"contracts/test.sol\":1926:1934  _spender */\n      dup3\n        /* \"contracts/test.sol\":1905:1943  Approval(msg.sender, _spender, _value) */\n      0xffffffffffffffffffffffffffffffffffffffff\n      and\n        /* \"contracts/test.sol\":1914:1924  msg.sender */\n      caller\n        /* \"contracts/test.sol\":1905:1943  Approval(msg.sender, _spender, _value) */\n      0xffffffffffffffffffffffffffffffffffffffff\n      and\n      0x8c5be1e5ebec7d5bd14f71427d1e84f3dd0314c0f7b2291e5b200ac8c7c3b925\n        /* \"contracts/test.sol\":1936:1942  _value */\n      dup5\n        /* \"contracts/test.sol\":1905:1943  Approval(msg.sender, _spender, _value) */\n      mload(0x40)\n      tag_85\n      swap2\n      swap1\n      tag_37\n      jump\t// in\n    tag_85:\n      mload(0x40)\n      dup1\n      swap2\n      sub\n      swap1\n      log3\n        /* \"contracts/test.sol\":1961:1965  true */\n      0x01\n        /* \"contracts/test.sol\":1954:1965  return true */\n      swap1\n      pop\n        /* \"contracts/test.sol\":1757:1973  function approve(address _spender, uint256 _value) public returns (bool success) {\r... */\n      swap3\n      swap2\n      pop\n      pop\n      jump\t// out\n        /* \"contracts/test.sol\":1981:2176  function addStudentRecord(address _student, int _ID, string memory _fName) public {\r... */\n    tag_33:\n        /* \"contracts/test.sol\":2083:2091  students */\n      0x06\n        /* \"contracts/test.sol\":2083:2101  students[_student] */\n      0x00\n        /* \"contracts/test.sol\":2092:2100  _student */\n      dup5\n        /* \"contracts/test.sol\":2083:2101  students[_student] */\n      0xffffffffffffffffffffffffffffffffffffffff\n      and\n      0xffffffffffffffffffffffffffffffffffffffff\n      and\n      dup2\n      mstore\n      0x20\n      add\n      swap1\n      dup2\n      mstore\n      0x20\n      add\n      0x00\n      keccak256\n      0x00\n      swap1\n      sload\n      swap1\n      0x0100\n      exp\n      swap1\n      div\n      0xff\n      and\n        /* \"contracts/test.sol\":2082:2101  !students[_student] */\n      iszero\n        /* \"contracts/test.sol\":2074:2102  require(!students[_student]) */\n      tag_87\n      jumpi\n      0x00\n      dup1\n      revert\n    tag_87:\n        /* \"contracts/test.sol\":2134:2138  true */\n      0x01\n        /* \"contracts/test.sol\":2113:2121  students */\n      0x06\n        /* \"contracts/test.sol\":2113:2131  students[_student] */\n      0x00\n        /* \"contracts/test.sol\":2122:2130  _student */\n      dup6\n        /* \"contracts/test.sol\":2113:2131  students[_student] */\n      0xffffffffffffffffffffffffffffffffffffffff\n      and\n      0xffffffffffffffffffffffffffffffffffffffff\n      and\n      dup2\n      mstore\n      0x20\n      add\n      swap1\n      dup2\n      mstore\n      0x20\n      add\n      0x00\n      keccak256\n      0x00\n        /* \"contracts/test.sol\":2113:2138  students[_student] = true */\n      0x0100\n      exp\n      dup2\n      sload\n      dup2\n      0xff\n      mul\n      not\n      and\n      swap1\n      dup4\n      iszero\n      iszero\n      mul\n      or\n      swap1\n      sstore\n      pop\n        /* \"contracts/test.sol\":2167:2168  0 */\n      0x00\n        /* \"contracts/test.sol\":2149:2154  marks */\n      0x07\n        /* \"contracts/test.sol\":2149:2164  marks[_student] */\n      0x00\n        /* \"contracts/test.sol\":2155:2163  _student */\n      dup6\n        /* \"contracts/test.sol\":2149:2164  marks[_student] */\n      0xffffffffffffffffffffffffffffffffffffffff\n      and\n      0xffffffffffffffffffffffffffffffffffffffff\n      and\n      dup2\n      mstore\n      0x20\n      add\n      swap1\n      dup2\n      mstore\n      0x20\n      add\n      0x00\n      keccak256\n        /* \"contracts/test.sol\":2149:2168  marks[_student] = 0 */\n      dup2\n      swap1\n      sstore\n      pop\n        /* \"contracts/test.sol\":1981:2176  function addStudentRecord(address _student, int _ID, string memory _fName) public {\r... */\n      pop\n      pop\n      pop\n      jump\t// out\n        /* \"contracts/test.sol\":190:250  uint256 public totalSupply = 1000000 * 10**uint256(decimals) */\n    tag_35:\n      sload(0x03)\n      dup2\n      jump\t// out\n        /* \"contracts/test.sol\":436:477  mapping (address => uint256) public marks */\n    tag_41:\n      mstore(0x20, 0x07)\n      dup1\n      0x00\n      mstore\n      keccak256(0x00, 0x40)\n      0x00\n      swap2\n      pop\n      swap1\n      pop\n      sload\n      dup2\n      jump\t// out\n        /* \"contracts/test.sol\":1476:1749  function transferFrom(address _from, address _to, uint256 _value) public returns (bool success) {\r... */\n    tag_46:\n        /* \"contracts/test.sol\":1558:1570  bool success */\n      0x00\n        /* \"contracts/test.sol\":1601:1610  allowance */\n      0x05\n        /* \"contracts/test.sol\":1601:1617  allowance[_from] */\n      0x00\n        /* \"contracts/test.sol\":1611:1616  _from */\n      dup6\n        /* \"contracts/test.sol\":1601:1617  allowance[_from] */\n      0xffffffffffffffffffffffffffffffffffffffff\n      and\n      0xffffffffffffffffffffffffffffffffffffffff\n      and\n      dup2\n      mstore\n      0x20\n      add\n      swap1\n      dup2\n      mstore\n      0x20\n      add\n      0x00\n      keccak256\n        /* \"contracts/test.sol\":1601:1629  allowance[_from][msg.sender] */\n      0x00\n        /* \"contracts/test.sol\":1618:1628  msg.sender */\n      caller\n        /* \"contracts/test.sol\":1601:1629  allowance[_from][msg.sender] */\n      0xffffffffffffffffffffffffffffffffffffffff\n      and\n      0xffffffffffffffffffffffffffffffffffffffff\n      and\n      dup2\n      mstore\n      0x20\n      add\n      swap1\n      dup2\n      mstore\n      0x20\n      add\n      0x00\n      keccak256\n      sload\n        /* \"contracts/test.sol\":1591:1597  _value */\n      dup3\n        /* \"contracts/test.sol\":1591:1629  _value <= allowance[_from][msg.sender] */\n      gt\n      iszero\n        /* \"contracts/test.sol\":1583:1630  require(_value <= allowance[_from][msg.sender]) */\n      tag_89\n      jumpi\n      0x00\n      dup1\n      revert\n    tag_89:\n        /* \"contracts/test.sol\":1673:1679  _value */\n      dup2\n        /* \"contracts/test.sol\":1641:1650  allowance */\n      0x05\n        /* \"contracts/test.sol\":1641:1657  allowance[_from] */\n      0x00\n        /* \"contracts/test.sol\":1651:1656  _from */\n      dup7\n        /* \"contracts/test.sol\":1641:1657  allowance[_from] */\n      0xffffffffffffffffffffffffffffffffffffffff\n      and\n      0xffffffffffffffffffffffffffffffffffffffff\n      and\n      dup2\n      mstore\n      0x20\n      add\n      swap1\n      dup2\n      mstore\n      0x20\n      add\n      0x00\n      keccak256\n        /* \"contracts/test.sol\":1641:1669  allowance[_from][msg.sender] */\n      0x00\n        /* \"contracts/test.sol\":1658:1668  msg.sender */\n      caller\n        /* \"contracts/test.sol\":1641:1669  allowance[_from][msg.sender] */\n      0xffffffffffffffffffffffffffffffffffffffff\n      and\n      0xffffffffffffffffffffffffffffffffffffffff\n      and\n      dup2\n      mstore\n      0x20\n      add\n      swap1\n      dup2\n      mstore\n      0x20\n      add\n      0x00\n      keccak256\n      0x00\n        /* \"contracts/test.sol\":1641:1679  allowance[_from][msg.sender] -= _value */\n      dup3\n      dup3\n      sload\n      tag_90\n      swap2\n      swap1\n      tag_91\n      jump\t// in\n    tag_90:\n      swap3\n      pop\n      pop\n      dup2\n      swap1\n      sstore\n      pop\n        /* \"contracts/test.sol\":1690:1719  _transfer(_from, _to, _value) */\n      tag_92\n        /* \"contracts/test.sol\":1700:1705  _from */\n      dup5\n        /* \"contracts/test.sol\":1707:1710  _to */\n      dup5\n        /* \"contracts/test.sol\":1712:1718  _value */\n      dup5\n        /* \"contracts/test.sol\":1690:1699  _transfer */\n      tag_93\n        /* \"contracts/test.sol\":1690:1719  _transfer(_from, _to, _value) */\n      jump\t// in\n    tag_92:\n        /* \"contracts/test.sol\":1737:1741  true */\n      0x01\n        /* \"contracts/test.sol\":1730:1741  return true */\n      swap1\n      pop\n        /* \"contracts/test.sol\":1476:1749  function transferFrom(address _from, address _to, uint256 _value) public returns (bool success) {\r... */\n      swap4\n      swap3\n      pop\n      pop\n      pop\n      jump\t// out\n        /* \"contracts/test.sol\":158:183  uint8 public decimals = 8 */\n    tag_49:\n      0x02\n      0x00\n      swap1\n      sload\n      swap1\n      0x0100\n      exp\n      swap1\n      div\n      0xff\n      and\n      dup2\n      jump\t// out\n        /* \"contracts/test.sol\":2184:2325  function addMarks(address _student, uint256 _marks) public {\r... */\n    tag_54:\n        /* \"contracts/test.sol\":2262:2270  students */\n      0x06\n        /* \"contracts/test.sol\":2262:2280  students[_student] */\n      0x00\n        /* \"contracts/test.sol\":2271:2279  _student */\n      dup4\n        /* \"contracts/test.sol\":2262:2280  students[_student] */\n      0xffffffffffffffffffffffffffffffffffffffff\n      and\n      0xffffffffffffffffffffffffffffffffffffffff\n      and\n      dup2\n      mstore\n      0x20\n      add\n      swap1\n      dup2\n      mstore\n      0x20\n      add\n      0x00\n      keccak256\n      0x00\n      swap1\n      sload\n      swap1\n      0x0100\n      exp\n      swap1\n      div\n      0xff\n      and\n        /* \"contracts/test.sol\":2254:2281  require(students[_student]) */\n      tag_95\n      jumpi\n      0x00\n      dup1\n      revert\n    tag_95:\n        /* \"contracts/test.sol\":2311:2317  _marks */\n      dup1\n        /* \"contracts/test.sol\":2292:2297  marks */\n      0x07\n        /* \"contracts/test.sol\":2292:2307  marks[_student] */\n      0x00\n        /* \"contracts/test.sol\":2298:2306  _student */\n      dup5\n        /* \"contracts/test.sol\":2292:2307  marks[_student] */\n      0xffffffffffffffffffffffffffffffffffffffff\n      and\n      0xffffffffffffffffffffffffffffffffffffffff\n      and\n      dup2\n      mstore\n      0x20\n      add\n      swap1\n      dup2\n      mstore\n      0x20\n      add\n      0x00\n      keccak256\n      0x00\n        /* \"contracts/test.sol\":2292:2317  marks[_student] += _marks */\n      dup3\n      dup3\n      sload\n      tag_96\n      swap2\n      swap1\n      tag_97\n      jump\t// in\n    tag_96:\n      swap3\n      pop\n      pop\n      dup2\n      swap1\n      sstore\n      pop\n        /* \"contracts/test.sol\":2184:2325  function addMarks(address _student, uint256 _marks) public {\r... */\n      pop\n      pop\n      jump\t// out\n        /* \"contracts/test.sol\":259:304  mapping (address => uint256) public balanceOf */\n    tag_57:\n      mstore(0x20, 0x04)\n      dup1\n      0x00\n      mstore\n      keccak256(0x00, 0x40)\n      0x00\n      swap2\n      pop\n      swap1\n      pop\n      sload\n      dup2\n      jump\t// out\n        /* \"contracts/test.sol\":123:151  string public symbol = \"MTK\" */\n    tag_60:\n      0x01\n      dup1\n      sload\n      tag_98\n      swap1\n      tag_79\n      jump\t// in\n    tag_98:\n      dup1\n      0x1f\n      add\n      0x20\n      dup1\n      swap2\n      div\n      mul\n      0x20\n      add\n      mload(0x40)\n      swap1\n      dup2\n      add\n      0x40\n      mstore\n      dup1\n      swap3\n      swap2\n      swap1\n      dup2\n      dup2\n      mstore\n      0x20\n      add\n      dup3\n      dup1\n      sload\n      tag_99\n      swap1\n      tag_79\n      jump\t// in\n    tag_99:\n      dup1\n      iszero\n      tag_100\n      jumpi\n      dup1\n      0x1f\n      lt\n      tag_101\n      jumpi\n      0x0100\n      dup1\n      dup4\n      sload\n      div\n      mul\n      dup4\n      mstore\n      swap2\n      0x20\n      add\n      swap2\n      jump(tag_100)\n    tag_101:\n      dup3\n      add\n      swap2\n      swap1\n      0x00\n      mstore\n      keccak256(0x00, 0x20)\n      swap1\n    tag_102:\n      dup2\n      sload\n      dup2\n      mstore\n      swap1\n      0x01\n      add\n      swap1\n      0x20\n      add\n      dup1\n      dup4\n      gt\n      tag_102\n      jumpi\n      dup3\n      swap1\n      sub\n      0x1f\n      and\n      dup3\n      add\n      swap2\n    tag_100:\n      pop\n      pop\n      pop\n      pop\n      pop\n      dup2\n      jump\t// out\n        /* \"contracts/test.sol\":388:429  mapping (address => bool) public students */\n    tag_64:\n      mstore(0x20, 0x06)\n      dup1\n      0x00\n      mstore\n      keccak256(0x00, 0x40)\n      0x00\n      swap2\n      pop\n      sload\n      swap1\n      0x0100\n      exp\n      swap1\n      div\n      0xff\n      and\n      dup2\n      jump\t// out\n        /* \"contracts/test.sol\":1316:1468  function transfer(address _to, uint256 _value) public returns (bool success) {\r... */\n    tag_68:\n        /* \"contracts/test.sol\":1379:1391  bool success */\n      0x00\n        /* \"contracts/test.sol\":1404:1438  _transfer(msg.sender, _to, _value) */\n      tag_104\n        /* \"contracts/test.sol\":1414:1424  msg.sender */\n      caller\n        /* \"contracts/test.sol\":1426:1429  _to */\n      dup5\n        /* \"contracts/test.sol\":1431:1437  _value */\n      dup5\n        /* \"contracts/test.sol\":1404:1413  _transfer */\n      tag_93\n        /* \"contracts/test.sol\":1404:1438  _transfer(msg.sender, _to, _value) */\n      jump\t// in\n    tag_104:\n        /* \"contracts/test.sol\":1456:1460  true */\n      0x01\n        /* \"contracts/test.sol\":1449:1460  return true */\n      swap1\n      pop\n        /* \"contracts/test.sol\":1316:1468  function transfer(address _to, uint256 _value) public returns (bool success) {\r... */\n      swap3\n      swap2\n      pop\n      pop\n      jump\t// out\n        /* \"contracts/test.sol\":313:379  mapping (address => mapping (address => uint256)) public allowance */\n    tag_73:\n      mstore(0x20, 0x05)\n      dup2\n      0x00\n      mstore\n      mstore(0x20, keccak256(0x00, 0x40))\n      dup1\n      0x00\n      mstore\n      keccak256(0x00, 0x40)\n      0x00\n      swap2\n      pop\n      swap2\n      pop\n      pop\n      sload\n      dup2\n      jump\t// out\n        /* \"contracts/test.sol\":2333:2663  function rewardTokens(address _student) public {\r... */\n    tag_77:\n        /* \"contracts/test.sol\":2399:2407  students */\n      0x06\n        /* \"contracts/test.sol\":2399:2417  students[_student] */\n      0x00\n        /* \"contracts/test.sol\":2408:2416  _student */\n      dup3\n        /* \"contracts/test.sol\":2399:2417  students[_student] */\n      0xffffffffffffffffffffffffffffffffffffffff\n      and\n      0xffffffffffffffffffffffffffffffffffffffff\n      and\n      dup2\n      mstore\n      0x20\n      add\n      swap1\n      dup2\n      mstore\n      0x20\n      add\n      0x00\n      keccak256\n      0x00\n      swap1\n      sload\n      swap1\n      0x0100\n      exp\n      swap1\n      div\n      0xff\n      and\n        /* \"contracts/test.sol\":2391:2418  require(students[_student]) */\n      tag_106\n      jumpi\n      0x00\n      dup1\n      revert\n    tag_106:\n        /* \"contracts/test.sol\":2429:2447  uint256 percentage */\n      0x00\n        /* \"contracts/test.sol\":2478:2481  500 */\n      0x01f4\n        /* \"contracts/test.sol\":2469:2474  10000 */\n      0x2710\n        /* \"contracts/test.sol\":2451:2456  marks */\n      0x07\n        /* \"contracts/test.sol\":2451:2466  marks[_student] */\n      0x00\n        /* \"contracts/test.sol\":2457:2465  _student */\n      dup6\n        /* \"contracts/test.sol\":2451:2466  marks[_student] */\n      0xffffffffffffffffffffffffffffffffffffffff\n      and\n      0xffffffffffffffffffffffffffffffffffffffff\n      and\n      dup2\n      mstore\n      0x20\n      add\n      swap1\n      dup2\n      mstore\n      0x20\n      add\n      0x00\n      keccak256\n      sload\n        /* \"contracts/test.sol\":2451:2474  marks[_student] * 10000 */\n      tag_107\n      swap2\n      swap1\n      tag_108\n      jump\t// in\n    tag_107:\n        /* \"contracts/test.sol\":2450:2481  (marks[_student] * 10000) / 500 */\n      tag_109\n      swap2\n      swap1\n      tag_110\n      jump\t// in\n    tag_109:\n        /* \"contracts/test.sol\":2429:2481  uint256 percentage = (marks[_student] * 10000) / 500 */\n      swap1\n      pop\n        /* \"contracts/test.sol\":2538:2560  uint256 tokensToReward */\n      0x00\n        /* \"contracts/test.sol\":2592:2597  10000 */\n      0x2710\n        /* \"contracts/test.sol\":2577:2588  totalSupply */\n      sload(0x03)\n        /* \"contracts/test.sol\":2564:2574  percentage */\n      dup4\n        /* \"contracts/test.sol\":2564:2588  percentage * totalSupply */\n      tag_111\n      swap2\n      swap1\n      tag_108\n      jump\t// in\n    tag_111:\n        /* \"contracts/test.sol\":2563:2597  (percentage * totalSupply) / 10000 */\n      tag_112\n      swap2\n      swap1\n      tag_110\n      jump\t// in\n    tag_112:\n        /* \"contracts/test.sol\":2538:2597  uint256 tokensToReward = (percentage * totalSupply) / 10000 */\n      swap1\n      pop\n        /* \"contracts/test.sol\":2608:2655  _transfer(msg.sender, _student, tokensToReward) */\n      tag_113\n        /* \"contracts/test.sol\":2618:2628  msg.sender */\n      caller\n        /* \"contracts/test.sol\":2630:2638  _student */\n      dup5\n        /* \"contracts/test.sol\":2640:2654  tokensToReward */\n      dup4\n        /* \"contracts/test.sol\":2608:2617  _transfer */\n      tag_93\n        /* \"contracts/test.sol\":2608:2655  _transfer(msg.sender, _student, tokensToReward) */\n      jump\t// in\n    tag_113:\n        /* \"contracts/test.sol\":2380:2663  {\r... */\n      pop\n      pop\n        /* \"contracts/test.sol\":2333:2663  function rewardTokens(address _student) public {\r... */\n      pop\n      jump\t// out\n        /* \"contracts/test.sol\":817:1308  function _transfer(address _from, address _to, uint256 _value) internal {\r... */\n    tag_93:\n        /* \"contracts/test.sol\":923:924  0 */\n      0x00\n        /* \"contracts/test.sol\":908:925  _to != address(0) */\n      0xffffffffffffffffffffffffffffffffffffffff\n      and\n        /* \"contracts/test.sol\":908:911  _to */\n      dup3\n        /* \"contracts/test.sol\":908:925  _to != address(0) */\n      0xffffffffffffffffffffffffffffffffffffffff\n      and\n      eq\n      iszero\n        /* \"contracts/test.sol\":900:926  require(_to != address(0)) */\n      tag_115\n      jumpi\n      0x00\n      dup1\n      revert\n    tag_115:\n        /* \"contracts/test.sol\":965:971  _value */\n      dup1\n        /* \"contracts/test.sol\":945:954  balanceOf */\n      0x04\n        /* \"contracts/test.sol\":945:961  balanceOf[_from] */\n      0x00\n        /* \"contracts/test.sol\":955:960  _from */\n      dup6\n        /* \"contracts/test.sol\":945:961  balanceOf[_from] */\n      0xffffffffffffffffffffffffffffffffffffffff\n      and\n      0xffffffffffffffffffffffffffffffffffffffff\n      and\n      dup2\n      mstore\n      0x20\n      add\n      swap1\n      dup2\n      mstore\n      0x20\n      add\n      0x00\n      keccak256\n      sload\n        /* \"contracts/test.sol\":945:971  balanceOf[_from] >= _value */\n      lt\n      iszero\n        /* \"contracts/test.sol\":937:972  require(balanceOf[_from] >= _value) */\n      tag_116\n      jumpi\n      0x00\n      dup1\n      revert\n    tag_116:\n        /* \"contracts/test.sol\":1018:1027  balanceOf */\n      0x04\n        /* \"contracts/test.sol\":1018:1032  balanceOf[_to] */\n      0x00\n        /* \"contracts/test.sol\":1028:1031  _to */\n      dup4\n        /* \"contracts/test.sol\":1018:1032  balanceOf[_to] */\n      0xffffffffffffffffffffffffffffffffffffffff\n      and\n      0xffffffffffffffffffffffffffffffffffffffff\n      and\n      dup2\n      mstore\n      0x20\n      add\n      swap1\n      dup2\n      mstore\n      0x20\n      add\n      0x00\n      keccak256\n      sload\n        /* \"contracts/test.sol\":1008:1014  _value */\n      dup2\n        /* \"contracts/test.sol\":991:1000  balanceOf */\n      0x04\n        /* \"contracts/test.sol\":991:1005  balanceOf[_to] */\n      0x00\n        /* \"contracts/test.sol\":1001:1004  _to */\n      dup6\n        /* \"contracts/test.sol\":991:1005  balanceOf[_to] */\n      0xffffffffffffffffffffffffffffffffffffffff\n      and\n      0xffffffffffffffffffffffffffffffffffffffff\n      and\n      dup2\n      mstore\n      0x20\n      add\n      swap1\n      dup2\n      mstore\n      0x20\n      add\n      0x00\n      keccak256\n      sload\n        /* \"contracts/test.sol\":991:1014  balanceOf[_to] + _value */\n      tag_117\n      swap2\n      swap1\n      tag_97\n      jump\t// in\n    tag_117:\n        /* \"contracts/test.sol\":991:1032  balanceOf[_to] + _value >= balanceOf[_to] */\n      lt\n      iszero\n        /* \"contracts/test.sol\":983:1033  require(balanceOf[_to] + _value >= balanceOf[_to]) */\n      tag_118\n      jumpi\n      0x00\n      dup1\n      revert\n    tag_118:\n        /* \"contracts/test.sol\":1046:1070  uint256 previousBalances */\n      0x00\n        /* \"contracts/test.sol\":1092:1101  balanceOf */\n      0x04\n        /* \"contracts/test.sol\":1092:1106  balanceOf[_to] */\n      0x00\n        /* \"contracts/test.sol\":1102:1105  _to */\n      dup5\n        /* \"contracts/test.sol\":1092:1106  balanceOf[_to] */\n      0xffffffffffffffffffffffffffffffffffffffff\n      and\n      0xffffffffffffffffffffffffffffffffffffffff\n      and\n      dup2\n      mstore\n      0x20\n      add\n      swap1\n      dup2\n      mstore\n      0x20\n      add\n      0x00\n      keccak256\n      sload\n        /* \"contracts/test.sol\":1073:1082  balanceOf */\n      0x04\n        /* \"contracts/test.sol\":1073:1089  balanceOf[_from] */\n      0x00\n        /* \"contracts/test.sol\":1083:1088  _from */\n      dup7\n        /* \"contracts/test.sol\":1073:1089  balanceOf[_from] */\n      0xffffffffffffffffffffffffffffffffffffffff\n      and\n      0xffffffffffffffffffffffffffffffffffffffff\n      and\n      dup2\n      mstore\n      0x20\n      add\n      swap1\n      dup2\n      mstore\n      0x20\n      add\n      0x00\n      keccak256\n      sload\n        /* \"contracts/test.sol\":1073:1106  balanceOf[_from] + balanceOf[_to] */\n      tag_119\n      swap2\n      swap1\n      tag_97\n      jump\t// in\n    tag_119:\n        /* \"contracts/test.sol\":1046:1106  uint256 previousBalances = balanceOf[_from] + balanceOf[_to] */\n      swap1\n      pop\n        /* \"contracts/test.sol\":1139:1145  _value */\n      dup2\n        /* \"contracts/test.sol\":1119:1128  balanceOf */\n      0x04\n        /* \"contracts/test.sol\":1119:1135  balanceOf[_from] */\n      0x00\n        /* \"contracts/test.sol\":1129:1134  _from */\n      dup7\n        /* \"contracts/test.sol\":1119:1135  balanceOf[_from] */\n      0xffffffffffffffffffffffffffffffffffffffff\n      and\n      0xffffffffffffffffffffffffffffffffffffffff\n      and\n      dup2\n      mstore\n      0x20\n      add\n      swap1\n      dup2\n      mstore\n      0x20\n      add\n      0x00\n      keccak256\n      0x00\n        /* \"contracts/test.sol\":1119:1145  balanceOf[_from] -= _value */\n      dup3\n      dup3\n      sload\n      tag_120\n      swap2\n      swap1\n      tag_91\n      jump\t// in\n    tag_120:\n      swap3\n      pop\n      pop\n      dup2\n      swap1\n      sstore\n      pop\n        /* \"contracts/test.sol\":1174:1180  _value */\n      dup2\n        /* \"contracts/test.sol\":1156:1165  balanceOf */\n      0x04\n        /* \"contracts/test.sol\":1156:1170  balanceOf[_to] */\n      0x00\n        /* \"contracts/test.sol\":1166:1169  _to */\n      dup6\n        /* \"contracts/test.sol\":1156:1170  balanceOf[_to] */\n      0xffffffffffffffffffffffffffffffffffffffff\n      and\n      0xffffffffffffffffffffffffffffffffffffffff\n      and\n      dup2\n      mstore\n      0x20\n      add\n      swap1\n      dup2\n      mstore\n      0x20\n      add\n      0x00\n      keccak256\n      0x00\n        /* \"contracts/test.sol\":1156:1180  balanceOf[_to] += _value */\n      dup3\n      dup3\n      sload\n      tag_121\n      swap2\n      swap1\n      tag_97\n      jump\t// in\n    tag_121:\n      swap3\n      pop\n      pop\n      dup2\n      swap1\n      sstore\n      pop\n        /* \"contracts/test.sol\":1214:1217  _to */\n      dup3\n        /* \"contracts/test.sol\":1198:1226  Transfer(_from, _to, _value) */\n      0xffffffffffffffffffffffffffffffffffffffff\n      and\n        /* \"contracts/test.sol\":1207:1212  _from */\n      dup5\n        /* \"contracts/test.sol\":1198:1226  Transfer(_from, _to, _value) */\n      0xffffffffffffffffffffffffffffffffffffffff\n      and\n      0xddf252ad1be2c89b69c2b068fc378daa952ba7f163c4a11628f55a4df523b3ef\n        /* \"contracts/test.sol\":1219:1225  _value */\n      dup5\n        /* \"contracts/test.sol\":1198:1226  Transfer(_from, _to, _value) */\n      mload(0x40)\n      tag_122\n      swap2\n      swap1\n      tag_37\n      jump\t// in\n    tag_122:\n      mload(0x40)\n      dup1\n      swap2\n      sub\n      swap1\n      log3\n        /* \"contracts/test.sol\":1283:1299  previousBalances */\n      dup1\n        /* \"contracts/test.sol\":1265:1274  balanceOf */\n      0x04\n        /* \"contracts/test.sol\":1265:1279  balanceOf[_to] */\n      0x00\n        /* \"contracts/test.sol\":1275:1278  _to */\n      dup6\n        /* \"contracts/test.sol\":1265:1279  balanceOf[_to] */\n      0xffffffffffffffffffffffffffffffffffffffff\n      and\n      0xffffffffffffffffffffffffffffffffffffffff\n      and\n      dup2\n      mstore\n      0x20\n      add\n      swap1\n      dup2\n      mstore\n      0x20\n      add\n      0x00\n      keccak256\n      sload\n        /* \"contracts/test.sol\":1246:1255  balanceOf */\n      0x04\n        /* \"contracts/test.sol\":1246:1262  balanceOf[_from] */\n      0x00\n        /* \"contracts/test.sol\":1256:1261  _from */\n      dup8\n        /* \"contracts/test.sol\":1246:1262  balanceOf[_from] */\n      0xffffffffffffffffffffffffffffffffffffffff\n      and\n      0xffffffffffffffffffffffffffffffffffffffff\n      and\n      dup2\n      mstore\n      0x20\n      add\n      swap1\n      dup2\n      mstore\n      0x20\n      add\n      0x00\n      keccak256\n      sload\n        /* \"contracts/test.sol\":1246:1279  balanceOf[_from] + balanceOf[_to] */\n      tag_123\n      swap2\n      swap1\n      tag_97\n      jump\t// in\n    tag_123:\n        /* \"contracts/test.sol\":1246:1299  balanceOf[_from] + balanceOf[_to] == previousBalances */\n      eq\n        /* \"contracts/test.sol\":1239:1300  assert(balanceOf[_from] + balanceOf[_to] == previousBalances) */\n      tag_124\n      jumpi\n      tag_125\n      tag_126\n      jump\t// in\n    tag_125:\n    tag_124:\n        /* \"contracts/test.sol\":889:1308  {\r... */\n      pop\n        /* \"contracts/test.sol\":817:1308  function _transfer(address _from, address _to, uint256 _value) internal {\r... */\n      pop\n      pop\n      pop\n      jump\t// out\n        /* \"#utility.yul\":7:419   */\n    tag_128:\n        /* \"#utility.yul\":85:90   */\n      0x00\n        /* \"#utility.yul\":110:176   */\n      tag_130\n        /* \"#utility.yul\":126:175   */\n      tag_131\n        /* \"#utility.yul\":168:174   */\n      dup5\n        /* \"#utility.yul\":126:175   */\n      tag_132\n      jump\t// in\n    tag_131:\n        /* \"#utility.yul\":110:176   */\n      tag_133\n      jump\t// in\n    tag_130:\n        /* \"#utility.yul\":101:176   */\n      swap1\n      pop\n        /* \"#utility.yul\":199:205   */\n      dup3\n        /* \"#utility.yul\":192:197   */\n      dup2\n        /* \"#utility.yul\":185:206   */\n      mstore\n        /* \"#utility.yul\":237:241   */\n      0x20\n        /* \"#utility.yul\":230:235   */\n      dup2\n        /* \"#utility.yul\":226:242   */\n      add\n        /* \"#utility.yul\":275:278   */\n      dup5\n        /* \"#utility.yul\":266:272   */\n      dup5\n        /* \"#utility.yul\":261:264   */\n      dup5\n        /* \"#utility.yul\":257:273   */\n      add\n        /* \"#utility.yul\":254:279   */\n      gt\n        /* \"#utility.yul\":251:363   */\n      iszero\n      tag_134\n      jumpi\n        /* \"#utility.yul\":282:361   */\n      tag_135\n      tag_136\n      jump\t// in\n    tag_135:\n        /* \"#utility.yul\":251:363   */\n    tag_134:\n        /* \"#utility.yul\":372:413   */\n      tag_137\n        /* \"#utility.yul\":406:412   */\n      dup5\n        /* \"#utility.yul\":401:404   */\n      dup3\n        /* \"#utility.yul\":396:399   */\n      dup6\n        /* \"#utility.yul\":372:413   */\n      tag_138\n      jump\t// in\n    tag_137:\n        /* \"#utility.yul\":91:419   */\n      pop\n        /* \"#utility.yul\":7:419   */\n      swap4\n      swap3\n      pop\n      pop\n      pop\n      jump\t// out\n        /* \"#utility.yul\":425:564   */\n    tag_139:\n        /* \"#utility.yul\":471:476   */\n      0x00\n        /* \"#utility.yul\":509:515   */\n      dup2\n        /* \"#utility.yul\":496:516   */\n      calldataload\n        /* \"#utility.yul\":487:516   */\n      swap1\n      pop\n        /* \"#utility.yul\":525:558   */\n      tag_141\n        /* \"#utility.yul\":552:557   */\n      dup2\n        /* \"#utility.yul\":525:558   */\n      tag_142\n      jump\t// in\n    tag_141:\n        /* \"#utility.yul\":425:564   */\n      swap3\n      swap2\n      pop\n      pop\n      jump\t// out\n        /* \"#utility.yul\":570:707   */\n    tag_143:\n        /* \"#utility.yul\":615:620   */\n      0x00\n        /* \"#utility.yul\":653:659   */\n      dup2\n        /* \"#utility.yul\":640:660   */\n      calldataload\n        /* \"#utility.yul\":631:660   */\n      swap1\n      pop\n        /* \"#utility.yul\":669:701   */\n      tag_145\n        /* \"#utility.yul\":695:700   */\n      dup2\n        /* \"#utility.yul\":669:701   */\n      tag_146\n      jump\t// in\n    tag_145:\n        /* \"#utility.yul\":570:707   */\n      swap3\n      swap2\n      pop\n      pop\n      jump\t// out\n        /* \"#utility.yul\":727:1067   */\n    tag_147:\n        /* \"#utility.yul\":783:788   */\n      0x00\n        /* \"#utility.yul\":832:835   */\n      dup3\n        /* \"#utility.yul\":825:829   */\n      0x1f\n        /* \"#utility.yul\":817:823   */\n      dup4\n        /* \"#utility.yul\":813:830   */\n      add\n        /* \"#utility.yul\":809:836   */\n      slt\n        /* \"#utility.yul\":799:921   */\n      tag_149\n      jumpi\n        /* \"#utility.yul\":840:919   */\n      tag_150\n      tag_151\n      jump\t// in\n    tag_150:\n        /* \"#utility.yul\":799:921   */\n    tag_149:\n        /* \"#utility.yul\":957:963   */\n      dup2\n        /* \"#utility.yul\":944:964   */\n      calldataload\n        /* \"#utility.yul\":982:1061   */\n      tag_152\n        /* \"#utility.yul\":1057:1060   */\n      dup5\n        /* \"#utility.yul\":1049:1055   */\n      dup3\n        /* \"#utility.yul\":1042:1046   */\n      0x20\n        /* \"#utility.yul\":1034:1040   */\n      dup7\n        /* \"#utility.yul\":1030:1047   */\n      add\n        /* \"#utility.yul\":982:1061   */\n      tag_128\n      jump\t// in\n    tag_152:\n        /* \"#utility.yul\":973:1061   */\n      swap2\n      pop\n        /* \"#utility.yul\":789:1067   */\n      pop\n        /* \"#utility.yul\":727:1067   */\n      swap3\n      swap2\n      pop\n      pop\n      jump\t// out\n        /* \"#utility.yul\":1073:1212   */\n    tag_153:\n        /* \"#utility.yul\":1119:1124   */\n      0x00\n        /* \"#utility.yul\":1157:1163   */\n      dup2\n        /* \"#utility.yul\":1144:1164   */\n      calldataload\n        /* \"#utility.yul\":1135:1164   */\n      swap1\n      pop\n        /* \"#utility.yul\":1173:1206   */\n      tag_155\n        /* \"#utility.yul\":1200:1205   */\n      dup2\n        /* \"#utility.yul\":1173:1206   */\n      tag_156\n      jump\t// in\n    tag_155:\n        /* \"#utility.yul\":1073:1212   */\n      swap3\n      swap2\n      pop\n      pop\n      jump\t// out\n        /* \"#utility.yul\":1218:1547   */\n    tag_40:\n        /* \"#utility.yul\":1277:1283   */\n      0x00\n        /* \"#utility.yul\":1326:1328   */\n      0x20\n        /* \"#utility.yul\":1314:1323   */\n      dup3\n        /* \"#utility.yul\":1305:1312   */\n      dup5\n        /* \"#utility.yul\":1301:1324   */\n      sub\n        /* \"#utility.yul\":1297:1329   */\n      slt\n        /* \"#utility.yul\":1294:1413   */\n      iszero\n      tag_158\n      jumpi\n        /* \"#utility.yul\":1332:1411   */\n      tag_159\n      tag_160\n      jump\t// in\n    tag_159:\n        /* \"#utility.yul\":1294:1413   */\n    tag_158:\n        /* \"#utility.yul\":1452:1453   */\n      0x00\n        /* \"#utility.yul\":1477:1530   */\n      tag_161\n        /* \"#utility.yul\":1522:1529   */\n      dup5\n        /* \"#utility.yul\":1513:1519   */\n      dup3\n        /* \"#utility.yul\":1502:1511   */\n      dup6\n        /* \"#utility.yul\":1498:1520   */\n      add\n        /* \"#utility.yul\":1477:1530   */\n      tag_139\n      jump\t// in\n    tag_161:\n        /* \"#utility.yul\":1467:1530   */\n      swap2\n      pop\n        /* \"#utility.yul\":1423:1540   */\n      pop\n        /* \"#utility.yul\":1218:1547   */\n      swap3\n      swap2\n      pop\n      pop\n      jump\t// out\n        /* \"#utility.yul\":1553:2027   */\n    tag_72:\n        /* \"#utility.yul\":1621:1627   */\n      0x00\n        /* \"#utility.yul\":1629:1635   */\n      dup1\n        /* \"#utility.yul\":1678:1680   */\n      0x40\n        /* \"#utility.yul\":1666:1675   */\n      dup4\n        /* \"#utility.yul\":1657:1664   */\n      dup6\n        /* \"#utility.yul\":1653:1676   */\n      sub\n        /* \"#utility.yul\":1649:1681   */\n      slt\n        /* \"#utility.yul\":1646:1765   */\n      iszero\n      tag_163\n      jumpi\n        /* \"#utility.yul\":1684:1763   */\n      tag_164\n      tag_160\n      jump\t// in\n    tag_164:\n        /* \"#utility.yul\":1646:1765   */\n    tag_163:\n        /* \"#utility.yul\":1804:1805   */\n      0x00\n        /* \"#utility.yul\":1829:1882   */\n      tag_165\n        /* \"#utility.yul\":1874:1881   */\n      dup6\n        /* \"#utility.yul\":1865:1871   */\n      dup3\n        /* \"#utility.yul\":1854:1863   */\n      dup7\n        /* \"#utility.yul\":1850:1872   */\n      add\n        /* \"#utility.yul\":1829:1882   */\n      tag_139\n      jump\t// in\n    tag_165:\n        /* \"#utility.yul\":1819:1882   */\n      swap3\n      pop\n        /* \"#utility.yul\":1775:1892   */\n      pop\n        /* \"#utility.yul\":1931:1933   */\n      0x20\n        /* \"#utility.yul\":1957:2010   */\n      tag_166\n        /* \"#utility.yul\":2002:2009   */\n      dup6\n        /* \"#utility.yul\":1993:1999   */\n      dup3\n        /* \"#utility.yul\":1982:1991   */\n      dup7\n        /* \"#utility.yul\":1978:2000   */\n      add\n        /* \"#utility.yul\":1957:2010   */\n      tag_139\n      jump\t// in\n    tag_166:\n        /* \"#utility.yul\":1947:2010   */\n      swap2\n      pop\n        /* \"#utility.yul\":1902:2020   */\n      pop\n        /* \"#utility.yul\":1553:2027   */\n      swap3\n      pop\n      swap3\n      swap1\n      pop\n      jump\t// out\n        /* \"#utility.yul\":2033:2652   */\n    tag_45:\n        /* \"#utility.yul\":2110:2116   */\n      0x00\n        /* \"#utility.yul\":2118:2124   */\n      dup1\n        /* \"#utility.yul\":2126:2132   */\n      0x00\n        /* \"#utility.yul\":2175:2177   */\n      0x60\n        /* \"#utility.yul\":2163:2172   */\n      dup5\n        /* \"#utility.yul\":2154:2161   */\n      dup7\n        /* \"#utility.yul\":2150:2173   */\n      sub\n        /* \"#utility.yul\":2146:2178   */\n      slt\n        /* \"#utility.yul\":2143:2262   */\n      iszero\n      tag_168\n      jumpi\n        /* \"#utility.yul\":2181:2260   */\n      tag_169\n      tag_160\n      jump\t// in\n    tag_169:\n        /* \"#utility.yul\":2143:2262   */\n    tag_168:\n        /* \"#utility.yul\":2301:2302   */\n      0x00\n        /* \"#utility.yul\":2326:2379   */\n      tag_170\n        /* \"#utility.yul\":2371:2378   */\n      dup7\n        /* \"#utility.yul\":2362:2368   */\n      dup3\n        /* \"#utility.yul\":2351:2360   */\n      dup8\n        /* \"#utility.yul\":2347:2369   */\n      add\n        /* \"#utility.yul\":2326:2379   */\n      tag_139\n      jump\t// in\n    tag_170:\n        /* \"#utility.yul\":2316:2379   */\n      swap4\n      pop\n        /* \"#utility.yul\":2272:2389   */\n      pop\n        /* \"#utility.yul\":2428:2430   */\n      0x20\n        /* \"#utility.yul\":2454:2507   */\n      tag_171\n        /* \"#utility.yul\":2499:2506   */\n      dup7\n        /* \"#utility.yul\":2490:2496   */\n      dup3\n        /* \"#utility.yul\":2479:2488   */\n      dup8\n        /* \"#utility.yul\":2475:2497   */\n      add\n        /* \"#utility.yul\":2454:2507   */\n      tag_139\n      jump\t// in\n    tag_171:\n        /* \"#utility.yul\":2444:2507   */\n      swap3\n      pop\n        /* \"#utility.yul\":2399:2517   */\n      pop\n        /* \"#utility.yul\":2556:2558   */\n      0x40\n        /* \"#utility.yul\":2582:2635   */\n      tag_172\n        /* \"#utility.yul\":2627:2634   */\n      dup7\n        /* \"#utility.yul\":2618:2624   */\n      dup3\n        /* \"#utility.yul\":2607:2616   */\n      dup8\n        /* \"#utility.yul\":2603:2625   */\n      add\n        /* \"#utility.yul\":2582:2635   */\n      tag_153\n      jump\t// in\n    tag_172:\n        /* \"#utility.yul\":2572:2635   */\n      swap2\n      pop\n        /* \"#utility.yul\":2527:2645   */\n      pop\n        /* \"#utility.yul\":2033:2652   */\n      swap3\n      pop\n      swap3\n      pop\n      swap3\n      jump\t// out\n        /* \"#utility.yul\":2658:3455   */\n    tag_32:\n        /* \"#utility.yul\":2744:2750   */\n      0x00\n        /* \"#utility.yul\":2752:2758   */\n      dup1\n        /* \"#utility.yul\":2760:2766   */\n      0x00\n        /* \"#utility.yul\":2809:2811   */\n      0x60\n        /* \"#utility.yul\":2797:2806   */\n      dup5\n        /* \"#utility.yul\":2788:2795   */\n      dup7\n        /* \"#utility.yul\":2784:2807   */\n      sub\n        /* \"#utility.yul\":2780:2812   */\n      slt\n        /* \"#utility.yul\":2777:2896   */\n      iszero\n      tag_174\n      jumpi\n        /* \"#utility.yul\":2815:2894   */\n      tag_175\n      tag_160\n      jump\t// in\n    tag_175:\n        /* \"#utility.yul\":2777:2896   */\n    tag_174:\n        /* \"#utility.yul\":2935:2936   */\n      0x00\n        /* \"#utility.yul\":2960:3013   */\n      tag_176\n        /* \"#utility.yul\":3005:3012   */\n      dup7\n        /* \"#utility.yul\":2996:3002   */\n      dup3\n        /* \"#utility.yul\":2985:2994   */\n      dup8\n        /* \"#utility.yul\":2981:3003   */\n      add\n        /* \"#utility.yul\":2960:3013   */\n      tag_139\n      jump\t// in\n    tag_176:\n        /* \"#utility.yul\":2950:3013   */\n      swap4\n      pop\n        /* \"#utility.yul\":2906:3023   */\n      pop\n        /* \"#utility.yul\":3062:3064   */\n      0x20\n        /* \"#utility.yul\":3088:3140   */\n      tag_177\n        /* \"#utility.yul\":3132:3139   */\n      dup7\n        /* \"#utility.yul\":3123:3129   */\n      dup3\n        /* \"#utility.yul\":3112:3121   */\n      dup8\n        /* \"#utility.yul\":3108:3130   */\n      add\n        /* \"#utility.yul\":3088:3140   */\n      tag_143\n      jump\t// in\n    tag_177:\n        /* \"#utility.yul\":3078:3140   */\n      swap3\n      pop\n        /* \"#utility.yul\":3033:3150   */\n      pop\n        /* \"#utility.yul\":3217:3219   */\n      0x40\n        /* \"#utility.yul\":3206:3215   */\n      dup5\n        /* \"#utility.yul\":3202:3220   */\n      add\n        /* \"#utility.yul\":3189:3221   */\n      calldataload\n        /* \"#utility.yul\":3248:3266   */\n      0xffffffffffffffff\n        /* \"#utility.yul\":3240:3246   */\n      dup2\n        /* \"#utility.yul\":3237:3267   */\n      gt\n        /* \"#utility.yul\":3234:3351   */\n      iszero\n      tag_178\n      jumpi\n        /* \"#utility.yul\":3270:3349   */\n      tag_179\n      tag_180\n      jump\t// in\n    tag_179:\n        /* \"#utility.yul\":3234:3351   */\n    tag_178:\n        /* \"#utility.yul\":3375:3438   */\n      tag_181\n        /* \"#utility.yul\":3430:3437   */\n      dup7\n        /* \"#utility.yul\":3421:3427   */\n      dup3\n        /* \"#utility.yul\":3410:3419   */\n      dup8\n        /* \"#utility.yul\":3406:3428   */\n      add\n        /* \"#utility.yul\":3375:3438   */\n      tag_147\n      jump\t// in\n    tag_181:\n        /* \"#utility.yul\":3365:3438   */\n      swap2\n      pop\n        /* \"#utility.yul\":3160:3448   */\n      pop\n        /* \"#utility.yul\":2658:3455   */\n      swap3\n      pop\n      swap3\n      pop\n      swap3\n      jump\t// out\n        /* \"#utility.yul\":3461:3935   */\n    tag_26:\n        /* \"#utility.yul\":3529:3535   */\n      0x00\n        /* \"#utility.yul\":3537:3543   */\n      dup1\n        /* \"#utility.yul\":3586:3588   */\n      0x40\n        /* \"#utility.yul\":3574:3583   */\n      dup4\n        /* \"#utility.yul\":3565:3572   */\n      dup6\n        /* \"#utility.yul\":3561:3584   */\n      sub\n        /* \"#utility.yul\":3557:3589   */\n      slt\n        /* \"#utility.yul\":3554:3673   */\n      iszero\n      tag_183\n      jumpi\n        /* \"#utility.yul\":3592:3671   */\n      tag_184\n      tag_160\n      jump\t// in\n    tag_184:\n        /* \"#utility.yul\":3554:3673   */\n    tag_183:\n        /* \"#utility.yul\":3712:3713   */\n      0x00\n        /* \"#utility.yul\":3737:3790   */\n      tag_185\n        /* \"#utility.yul\":3782:3789   */\n      dup6\n        /* \"#utility.yul\":3773:3779   */\n      dup3\n        /* \"#utility.yul\":3762:3771   */\n      dup7\n        /* \"#utility.yul\":3758:3780   */\n      add\n        /* \"#utility.yul\":3737:3790   */\n      tag_139\n      jump\t// in\n    tag_185:\n        /* \"#utility.yul\":3727:3790   */\n      swap3\n      pop\n        /* \"#utility.yul\":3683:3800   */\n      pop\n        /* \"#utility.yul\":3839:3841   */\n      0x20\n        /* \"#utility.yul\":3865:3918   */\n      tag_186\n        /* \"#utility.yul\":3910:3917   */\n      dup6\n        /* \"#utility.yul\":3901:3907   */\n      dup3\n        /* \"#utility.yul\":3890:3899   */\n      dup7\n        /* \"#utility.yul\":3886:3908   */\n      add\n        /* \"#utility.yul\":3865:3918   */\n      tag_153\n      jump\t// in\n    tag_186:\n        /* \"#utility.yul\":3855:3918   */\n      swap2\n      pop\n        /* \"#utility.yul\":3810:3928   */\n      pop\n        /* \"#utility.yul\":3461:3935   */\n      swap3\n      pop\n      swap3\n      swap1\n      pop\n      jump\t// out\n        /* \"#utility.yul\":3941:4050   */\n    tag_187:\n        /* \"#utility.yul\":4022:4043   */\n      tag_189\n        /* \"#utility.yul\":4037:4042   */\n      dup2\n        /* \"#utility.yul\":4022:4043   */\n      tag_190\n      jump\t// in\n    tag_189:\n        /* \"#utility.yul\":4017:4020   */\n      dup3\n        /* \"#utility.yul\":4010:4044   */\n      mstore\n        /* \"#utility.yul\":3941:4050   */\n      pop\n      pop\n      jump\t// out\n        /* \"#utility.yul\":4056:4420   */\n    tag_191:\n        /* \"#utility.yul\":4144:4147   */\n      0x00\n        /* \"#utility.yul\":4172:4211   */\n      tag_193\n        /* \"#utility.yul\":4205:4210   */\n      dup3\n        /* \"#utility.yul\":4172:4211   */\n      tag_194\n      jump\t// in\n    tag_193:\n        /* \"#utility.yul\":4227:4298   */\n      tag_195\n        /* \"#utility.yul\":4291:4297   */\n      dup2\n        /* \"#utility.yul\":4286:4289   */\n      dup6\n        /* \"#utility.yul\":4227:4298   */\n      tag_196\n      jump\t// in\n    tag_195:\n        /* \"#utility.yul\":4220:4298   */\n      swap4\n      pop\n        /* \"#utility.yul\":4307:4359   */\n      tag_197\n        /* \"#utility.yul\":4352:4358   */\n      dup2\n        /* \"#utility.yul\":4347:4350   */\n      dup6\n        /* \"#utility.yul\":4340:4344   */\n      0x20\n        /* \"#utility.yul\":4333:4338   */\n      dup7\n        /* \"#utility.yul\":4329:4345   */\n      add\n        /* \"#utility.yul\":4307:4359   */\n      tag_198\n      jump\t// in\n    tag_197:\n        /* \"#utility.yul\":4384:4413   */\n      tag_199\n        /* \"#utility.yul\":4406:4412   */\n      dup2\n        /* \"#utility.yul\":4384:4413   */\n      tag_200\n      jump\t// in\n    tag_199:\n        /* \"#utility.yul\":4379:4382   */\n      dup5\n        /* \"#utility.yul\":4375:4414   */\n      add\n        /* \"#utility.yul\":4368:4414   */\n      swap2\n      pop\n        /* \"#utility.yul\":4148:4420   */\n      pop\n        /* \"#utility.yul\":4056:4420   */\n      swap3\n      swap2\n      pop\n      pop\n      jump\t// out\n        /* \"#utility.yul\":4426:4544   */\n    tag_201:\n        /* \"#utility.yul\":4513:4537   */\n      tag_203\n        /* \"#utility.yul\":4531:4536   */\n      dup2\n        /* \"#utility.yul\":4513:4537   */\n      tag_204\n      jump\t// in\n    tag_203:\n        /* \"#utility.yul\":4508:4511   */\n      dup3\n        /* \"#utility.yul\":4501:4538   */\n      mstore\n        /* \"#utility.yul\":4426:4544   */\n      pop\n      pop\n      jump\t// out\n        /* \"#utility.yul\":4550:4662   */\n    tag_205:\n        /* \"#utility.yul\":4633:4655   */\n      tag_207\n        /* \"#utility.yul\":4649:4654   */\n      dup2\n        /* \"#utility.yul\":4633:4655   */\n      tag_208\n      jump\t// in\n    tag_207:\n        /* \"#utility.yul\":4628:4631   */\n      dup3\n        /* \"#utility.yul\":4621:4656   */\n      mstore\n        /* \"#utility.yul\":4550:4662   */\n      pop\n      pop\n      jump\t// out\n        /* \"#utility.yul\":4668:4878   */\n    tag_29:\n        /* \"#utility.yul\":4755:4759   */\n      0x00\n        /* \"#utility.yul\":4793:4795   */\n      0x20\n        /* \"#utility.yul\":4782:4791   */\n      dup3\n        /* \"#utility.yul\":4778:4796   */\n      add\n        /* \"#utility.yul\":4770:4796   */\n      swap1\n      pop\n        /* \"#utility.yul\":4806:4871   */\n      tag_210\n        /* \"#utility.yul\":4868:4869   */\n      0x00\n        /* \"#utility.yul\":4857:4866   */\n      dup4\n        /* \"#utility.yul\":4853:4870   */\n      add\n        /* \"#utility.yul\":4844:4850   */\n      dup5\n        /* \"#utility.yul\":4806:4871   */\n      tag_187\n      jump\t// in\n    tag_210:\n        /* \"#utility.yul\":4668:4878   */\n      swap3\n      swap2\n      pop\n      pop\n      jump\t// out\n        /* \"#utility.yul\":4884:5197   */\n    tag_23:\n        /* \"#utility.yul\":4997:5001   */\n      0x00\n        /* \"#utility.yul\":5035:5037   */\n      0x20\n        /* \"#utility.yul\":5024:5033   */\n      dup3\n        /* \"#utility.yul\":5020:5038   */\n      add\n        /* \"#utility.yul\":5012:5038   */\n      swap1\n      pop\n        /* \"#utility.yul\":5084:5093   */\n      dup2\n        /* \"#utility.yul\":5078:5082   */\n      dup2\n        /* \"#utility.yul\":5074:5094   */\n      sub\n        /* \"#utility.yul\":5070:5071   */\n      0x00\n        /* \"#utility.yul\":5059:5068   */\n      dup4\n        /* \"#utility.yul\":5055:5072   */\n      add\n        /* \"#utility.yul\":5048:5095   */\n      mstore\n        /* \"#utility.yul\":5112:5190   */\n      tag_212\n        /* \"#utility.yul\":5185:5189   */\n      dup2\n        /* \"#utility.yul\":5176:5182   */\n      dup5\n        /* \"#utility.yul\":5112:5190   */\n      tag_191\n      jump\t// in\n    tag_212:\n        /* \"#utility.yul\":5104:5190   */\n      swap1\n      pop\n        /* \"#utility.yul\":4884:5197   */\n      swap3\n      swap2\n      pop\n      pop\n      jump\t// out\n        /* \"#utility.yul\":5203:5425   */\n    tag_37:\n        /* \"#utility.yul\":5296:5300   */\n      0x00\n        /* \"#utility.yul\":5334:5336   */\n      0x20\n        /* \"#utility.yul\":5323:5332   */\n      dup3\n        /* \"#utility.yul\":5319:5337   */\n      add\n        /* \"#utility.yul\":5311:5337   */\n      swap1\n      pop\n        /* \"#utility.yul\":5347:5418   */\n      tag_214\n        /* \"#utility.yul\":5415:5416   */\n      0x00\n        /* \"#utility.yul\":5404:5413   */\n      dup4\n        /* \"#utility.yul\":5400:5417   */\n      add\n        /* \"#utility.yul\":5391:5397   */\n      dup5\n        /* \"#utility.yul\":5347:5418   */\n      tag_201\n      jump\t// in\n    tag_214:\n        /* \"#utility.yul\":5203:5425   */\n      swap3\n      swap2\n      pop\n      pop\n      jump\t// out\n        /* \"#utility.yul\":5431:5645   */\n    tag_51:\n        /* \"#utility.yul\":5520:5524   */\n      0x00\n        /* \"#utility.yul\":5558:5560   */\n      0x20\n        /* \"#utility.yul\":5547:5556   */\n      dup3\n        /* \"#utility.yul\":5543:5561   */\n      add\n        /* \"#utility.yul\":5535:5561   */\n      swap1\n      pop\n        /* \"#utility.yul\":5571:5638   */\n      tag_216\n        /* \"#utility.yul\":5635:5636   */\n      0x00\n        /* \"#utility.yul\":5624:5633   */\n      dup4\n        /* \"#utility.yul\":5620:5637   */\n      add\n        /* \"#utility.yul\":5611:5617   */\n      dup5\n        /* \"#utility.yul\":5571:5638   */\n      tag_205\n      jump\t// in\n    tag_216:\n        /* \"#utility.yul\":5431:5645   */\n      swap3\n      swap2\n      pop\n      pop\n      jump\t// out\n        /* \"#utility.yul\":5651:5780   */\n    tag_133:\n        /* \"#utility.yul\":5685:5691   */\n      0x00\n        /* \"#utility.yul\":5712:5732   */\n      tag_218\n      tag_219\n      jump\t// in\n    tag_218:\n        /* \"#utility.yul\":5702:5732   */\n      swap1\n      pop\n        /* \"#utility.yul\":5741:5774   */\n      tag_220\n        /* \"#utility.yul\":5769:5773   */\n      dup3\n        /* \"#utility.yul\":5761:5767   */\n      dup3\n        /* \"#utility.yul\":5741:5774   */\n      tag_221\n      jump\t// in\n    tag_220:\n        /* \"#utility.yul\":5651:5780   */\n      swap2\n      swap1\n      pop\n      jump\t// out\n        /* \"#utility.yul\":5786:5861   */\n    tag_219:\n        /* \"#utility.yul\":5819:5825   */\n      0x00\n        /* \"#utility.yul\":5852:5854   */\n      0x40\n        /* \"#utility.yul\":5846:5855   */\n      mload\n        /* \"#utility.yul\":5836:5855   */\n      swap1\n      pop\n        /* \"#utility.yul\":5786:5861   */\n      swap1\n      jump\t// out\n        /* \"#utility.yul\":5867:6175   */\n    tag_132:\n        /* \"#utility.yul\":5929:5933   */\n      0x00\n        /* \"#utility.yul\":6019:6037   */\n      0xffffffffffffffff\n        /* \"#utility.yul\":6011:6017   */\n      dup3\n        /* \"#utility.yul\":6008:6038   */\n      gt\n        /* \"#utility.yul\":6005:6061   */\n      iszero\n      tag_224\n      jumpi\n        /* \"#utility.yul\":6041:6059   */\n      tag_225\n      tag_226\n      jump\t// in\n    tag_225:\n        /* \"#utility.yul\":6005:6061   */\n    tag_224:\n        /* \"#utility.yul\":6079:6108   */\n      tag_227\n        /* \"#utility.yul\":6101:6107   */\n      dup3\n        /* \"#utility.yul\":6079:6108   */\n      tag_200\n      jump\t// in\n    tag_227:\n        /* \"#utility.yul\":6071:6108   */\n      swap1\n      pop\n        /* \"#utility.yul\":6163:6167   */\n      0x20\n        /* \"#utility.yul\":6157:6161   */\n      dup2\n        /* \"#utility.yul\":6153:6168   */\n      add\n        /* \"#utility.yul\":6145:6168   */\n      swap1\n      pop\n        /* \"#utility.yul\":5867:6175   */\n      swap2\n      swap1\n      pop\n      jump\t// out\n        /* \"#utility.yul\":6181:6280   */\n    tag_194:\n        /* \"#utility.yul\":6233:6239   */\n      0x00\n        /* \"#utility.yul\":6267:6272   */\n      dup2\n        /* \"#utility.yul\":6261:6273   */\n      mload\n        /* \"#utility.yul\":6251:6273   */\n      swap1\n      pop\n        /* \"#utility.yul\":6181:6280   */\n      swap2\n      swap1\n      pop\n      jump\t// out\n        /* \"#utility.yul\":6286:6455   */\n    tag_196:\n        /* \"#utility.yul\":6370:6381   */\n      0x00\n        /* \"#utility.yul\":6404:6410   */\n      dup3\n        /* \"#utility.yul\":6399:6402   */\n      dup3\n        /* \"#utility.yul\":6392:6411   */\n      mstore\n        /* \"#utility.yul\":6444:6448   */\n      0x20\n        /* \"#utility.yul\":6439:6442   */\n      dup3\n        /* \"#utility.yul\":6435:6449   */\n      add\n        /* \"#utility.yul\":6420:6449   */\n      swap1\n      pop\n        /* \"#utility.yul\":6286:6455   */\n      swap3\n      swap2\n      pop\n      pop\n      jump\t// out\n        /* \"#utility.yul\":6461:6766   */\n    tag_97:\n        /* \"#utility.yul\":6501:6504   */\n      0x00\n        /* \"#utility.yul\":6520:6540   */\n      tag_231\n        /* \"#utility.yul\":6538:6539   */\n      dup3\n        /* \"#utility.yul\":6520:6540   */\n      tag_204\n      jump\t// in\n    tag_231:\n        /* \"#utility.yul\":6515:6540   */\n      swap2\n      pop\n        /* \"#utility.yul\":6554:6574   */\n      tag_232\n        /* \"#utility.yul\":6572:6573   */\n      dup4\n        /* \"#utility.yul\":6554:6574   */\n      tag_204\n      jump\t// in\n    tag_232:\n        /* \"#utility.yul\":6549:6574   */\n      swap3\n      pop\n        /* \"#utility.yul\":6708:6709   */\n      dup3\n        /* \"#utility.yul\":6640:6706   */\n      0xffffffffffffffffffffffffffffffffffffffffffffffffffffffffffffffff\n        /* \"#utility.yul\":6636:6710   */\n      sub\n        /* \"#utility.yul\":6633:6634   */\n      dup3\n        /* \"#utility.yul\":6630:6711   */\n      gt\n        /* \"#utility.yul\":6627:6734   */\n      iszero\n      tag_233\n      jumpi\n        /* \"#utility.yul\":6714:6732   */\n      tag_234\n      tag_235\n      jump\t// in\n    tag_234:\n        /* \"#utility.yul\":6627:6734   */\n    tag_233:\n        /* \"#utility.yul\":6758:6759   */\n      dup3\n        /* \"#utility.yul\":6755:6756   */\n      dup3\n        /* \"#utility.yul\":6751:6760   */\n      add\n        /* \"#utility.yul\":6744:6760   */\n      swap1\n      pop\n        /* \"#utility.yul\":6461:6766   */\n      swap3\n      swap2\n      pop\n      pop\n      jump\t// out\n        /* \"#utility.yul\":6772:6957   */\n    tag_110:\n        /* \"#utility.yul\":6812:6813   */\n      0x00\n        /* \"#utility.yul\":6829:6849   */\n      tag_237\n        /* \"#utility.yul\":6847:6848   */\n      dup3\n        /* \"#utility.yul\":6829:6849   */\n      tag_204\n      jump\t// in\n    tag_237:\n        /* \"#utility.yul\":6824:6849   */\n      swap2\n      pop\n        /* \"#utility.yul\":6863:6883   */\n      tag_238\n        /* \"#utility.yul\":6881:6882   */\n      dup4\n        /* \"#utility.yul\":6863:6883   */\n      tag_204\n      jump\t// in\n    tag_238:\n        /* \"#utility.yul\":6858:6883   */\n      swap3\n      pop\n        /* \"#utility.yul\":6902:6903   */\n      dup3\n        /* \"#utility.yul\":6892:6927   */\n      tag_239\n      jumpi\n        /* \"#utility.yul\":6907:6925   */\n      tag_240\n      tag_241\n      jump\t// in\n    tag_240:\n        /* \"#utility.yul\":6892:6927   */\n    tag_239:\n        /* \"#utility.yul\":6949:6950   */\n      dup3\n        /* \"#utility.yul\":6946:6947   */\n      dup3\n        /* \"#utility.yul\":6942:6951   */\n      div\n        /* \"#utility.yul\":6937:6951   */\n      swap1\n      pop\n        /* \"#utility.yul\":6772:6957   */\n      swap3\n      swap2\n      pop\n      pop\n      jump\t// out\n        /* \"#utility.yul\":6963:7311   */\n    tag_108:\n        /* \"#utility.yul\":7003:7010   */\n      0x00\n        /* \"#utility.yul\":7026:7046   */\n      tag_243\n        /* \"#utility.yul\":7044:7045   */\n      dup3\n        /* \"#utility.yul\":7026:7046   */\n      tag_204\n      jump\t// in\n    tag_243:\n        /* \"#utility.yul\":7021:7046   */\n      swap2\n      pop\n        /* \"#utility.yul\":7060:7080   */\n      tag_244\n        /* \"#utility.yul\":7078:7079   */\n      dup4\n        /* \"#utility.yul\":7060:7080   */\n      tag_204\n      jump\t// in\n    tag_244:\n        /* \"#utility.yul\":7055:7080   */\n      swap3\n      pop\n        /* \"#utility.yul\":7248:7249   */\n      dup2\n        /* \"#utility.yul\":7180:7246   */\n      0xffffffffffffffffffffffffffffffffffffffffffffffffffffffffffffffff\n        /* \"#utility.yul\":7176:7250   */\n      div\n        /* \"#utility.yul\":7173:7174   */\n      dup4\n        /* \"#utility.yul\":7170:7251   */\n      gt\n        /* \"#utility.yul\":7165:7166   */\n      dup3\n        /* \"#utility.yul\":7158:7167   */\n      iszero\n        /* \"#utility.yul\":7151:7168   */\n      iszero\n        /* \"#utility.yul\":7147:7252   */\n      and\n        /* \"#utility.yul\":7144:7275   */\n      iszero\n      tag_245\n      jumpi\n        /* \"#utility.yul\":7255:7273   */\n      tag_246\n      tag_235\n      jump\t// in\n    tag_246:\n        /* \"#utility.yul\":7144:7275   */\n    tag_245:\n        /* \"#utility.yul\":7303:7304   */\n      dup3\n        /* \"#utility.yul\":7300:7301   */\n      dup3\n        /* \"#utility.yul\":7296:7305   */\n      mul\n        /* \"#utility.yul\":7285:7305   */\n      swap1\n      pop\n        /* \"#utility.yul\":6963:7311   */\n      swap3\n      swap2\n      pop\n      pop\n      jump\t// out\n        /* \"#utility.yul\":7317:7508   */\n    tag_91:\n        /* \"#utility.yul\":7357:7361   */\n      0x00\n        /* \"#utility.yul\":7377:7397   */\n      tag_248\n        /* \"#utility.yul\":7395:7396   */\n      dup3\n        /* \"#utility.yul\":7377:7397   */\n      tag_204\n      jump\t// in\n    tag_248:\n        /* \"#utility.yul\":7372:7397   */\n      swap2\n      pop\n        /* \"#utility.yul\":7411:7431   */\n      tag_249\n        /* \"#utility.yul\":7429:7430   */\n      dup4\n        /* \"#utility.yul\":7411:7431   */\n      tag_204\n      jump\t// in\n    tag_249:\n        /* \"#utility.yul\":7406:7431   */\n      swap3\n      pop\n        /* \"#utility.yul\":7450:7451   */\n      dup3\n        /* \"#utility.yul\":7447:7448   */\n      dup3\n        /* \"#utility.yul\":7444:7452   */\n      lt\n        /* \"#utility.yul\":7441:7475   */\n      iszero\n      tag_250\n      jumpi\n        /* \"#utility.yul\":7455:7473   */\n      tag_251\n      tag_235\n      jump\t// in\n    tag_251:\n        /* \"#utility.yul\":7441:7475   */\n    tag_250:\n        /* \"#utility.yul\":7500:7501   */\n      dup3\n        /* \"#utility.yul\":7497:7498   */\n      dup3\n        /* \"#utility.yul\":7493:7502   */\n      sub\n        /* \"#utility.yul\":7485:7502   */\n      swap1\n      pop\n        /* \"#utility.yul\":7317:7508   */\n      swap3\n      swap2\n      pop\n      pop\n      jump\t// out\n        /* \"#utility.yul\":7514:7610   */\n    tag_252:\n        /* \"#utility.yul\":7551:7558   */\n      0x00\n        /* \"#utility.yul\":7580:7604   */\n      tag_254\n        /* \"#utility.yul\":7598:7603   */\n      dup3\n        /* \"#utility.yul\":7580:7604   */\n      tag_255\n      jump\t// in\n    tag_254:\n        /* \"#utility.yul\":7569:7604   */\n      swap1\n      pop\n        /* \"#utility.yul\":7514:7610   */\n      swap2\n      swap1\n      pop\n      jump\t// out\n        /* \"#utility.yul\":7616:7706   */\n    tag_190:\n        /* \"#utility.yul\":7650:7657   */\n      0x00\n        /* \"#utility.yul\":7693:7698   */\n      dup2\n        /* \"#utility.yul\":7686:7699   */\n      iszero\n        /* \"#utility.yul\":7679:7700   */\n      iszero\n        /* \"#utility.yul\":7668:7700   */\n      swap1\n      pop\n        /* \"#utility.yul\":7616:7706   */\n      swap2\n      swap1\n      pop\n      jump\t// out\n        /* \"#utility.yul\":7712:7788   */\n    tag_257:\n        /* \"#utility.yul\":7748:7755   */\n      0x00\n        /* \"#utility.yul\":7777:7782   */\n      dup2\n        /* \"#utility.yul\":7766:7782   */\n      swap1\n      pop\n        /* \"#utility.yul\":7712:7788   */\n      swap2\n      swap1\n      pop\n      jump\t// out\n        /* \"#utility.yul\":7794:7920   */\n    tag_255:\n        /* \"#utility.yul\":7831:7838   */\n      0x00\n        /* \"#utility.yul\":7871:7913   */\n      0xffffffffffffffffffffffffffffffffffffffff\n        /* \"#utility.yul\":7864:7869   */\n      dup3\n        /* \"#utility.yul\":7860:7914   */\n      and\n        /* \"#utility.yul\":7849:7914   */\n      swap1\n      pop\n        /* \"#utility.yul\":7794:7920   */\n      swap2\n      swap1\n      pop\n      jump\t// out\n        /* \"#utility.yul\":7926:8003   */\n    tag_204:\n        /* \"#utility.yul\":7963:7970   */\n      0x00\n        /* \"#utility.yul\":7992:7997   */\n      dup2\n        /* \"#utility.yul\":7981:7997   */\n      swap1\n      pop\n        /* \"#utility.yul\":7926:8003   */\n      swap2\n      swap1\n      pop\n      jump\t// out\n        /* \"#utility.yul\":8009:8095   */\n    tag_208:\n        /* \"#utility.yul\":8044:8051   */\n      0x00\n        /* \"#utility.yul\":8084:8088   */\n      0xff\n        /* \"#utility.yul\":8077:8082   */\n      dup3\n        /* \"#utility.yul\":8073:8089   */\n      and\n        /* \"#utility.yul\":8062:8089   */\n      swap1\n      pop\n        /* \"#utility.yul\":8009:8095   */\n      swap2\n      swap1\n      pop\n      jump\t// out\n        /* \"#utility.yul\":8101:8255   */\n    tag_138:\n        /* \"#utility.yul\":8185:8191   */\n      dup3\n        /* \"#utility.yul\":8180:8183   */\n      dup2\n        /* \"#utility.yul\":8175:8178   */\n      dup4\n        /* \"#utility.yul\":8162:8192   */\n      calldatacopy\n        /* \"#utility.yul\":8247:8248   */\n      0x00\n        /* \"#utility.yul\":8238:8244   */\n      dup4\n        /* \"#utility.yul\":8233:8236   */\n      dup4\n        /* \"#utility.yul\":8229:8245   */\n      add\n        /* \"#utility.yul\":8222:8249   */\n      mstore\n        /* \"#utility.yul\":8101:8255   */\n      pop\n      pop\n      pop\n      jump\t// out\n        /* \"#utility.yul\":8261:8568   */\n    tag_198:\n        /* \"#utility.yul\":8329:8330   */\n      0x00\n        /* \"#utility.yul\":8339:8452   */\n    tag_264:\n        /* \"#utility.yul\":8353:8359   */\n      dup4\n        /* \"#utility.yul\":8350:8351   */\n      dup2\n        /* \"#utility.yul\":8347:8360   */\n      lt\n        /* \"#utility.yul\":8339:8452   */\n      iszero\n      tag_266\n      jumpi\n        /* \"#utility.yul\":8438:8439   */\n      dup1\n        /* \"#utility.yul\":8433:8436   */\n      dup3\n        /* \"#utility.yul\":8429:8440   */\n      add\n        /* \"#utility.yul\":8423:8441   */\n      mload\n        /* \"#utility.yul\":8419:8420   */\n      dup2\n        /* \"#utility.yul\":8414:8417   */\n      dup5\n        /* \"#utility.yul\":8410:8421   */\n      add\n        /* \"#utility.yul\":8403:8442   */\n      mstore\n        /* \"#utility.yul\":8375:8377   */\n      0x20\n        /* \"#utility.yul\":8372:8373   */\n      dup2\n        /* \"#utility.yul\":8368:8378   */\n      add\n        /* \"#utility.yul\":8363:8378   */\n      swap1\n      pop\n        /* \"#utility.yul\":8339:8452   */\n      jump(tag_264)\n    tag_266:\n        /* \"#utility.yul\":8470:8476   */\n      dup4\n        /* \"#utility.yul\":8467:8468   */\n      dup2\n        /* \"#utility.yul\":8464:8477   */\n      gt\n        /* \"#utility.yul\":8461:8562   */\n      iszero\n      tag_267\n      jumpi\n        /* \"#utility.yul\":8550:8551   */\n      0x00\n        /* \"#utility.yul\":8541:8547   */\n      dup5\n        /* \"#utility.yul\":8536:8539   */\n      dup5\n        /* \"#utility.yul\":8532:8548   */\n      add\n        /* \"#utility.yul\":8525:8552   */\n      mstore\n        /* \"#utility.yul\":8461:8562   */\n    tag_267:\n        /* \"#utility.yul\":8310:8568   */\n      pop\n        /* \"#utility.yul\":8261:8568   */\n      pop\n      pop\n      pop\n      jump\t// out\n        /* \"#utility.yul\":8574:8894   */\n    tag_79:\n        /* \"#utility.yul\":8618:8624   */\n      0x00\n        /* \"#utility.yul\":8655:8656   */\n      0x02\n        /* \"#utility.yul\":8649:8653   */\n      dup3\n        /* \"#utility.yul\":8645:8657   */\n      div\n        /* \"#utility.yul\":8635:8657   */\n      swap1\n      pop\n        /* \"#utility.yul\":8702:8703   */\n      0x01\n        /* \"#utility.yul\":8696:8700   */\n      dup3\n        /* \"#utility.yul\":8692:8704   */\n      and\n        /* \"#utility.yul\":8723:8741   */\n      dup1\n        /* \"#utility.yul\":8713:8794   */\n      tag_269\n      jumpi\n        /* \"#utility.yul\":8779:8783   */\n      0x7f\n        /* \"#utility.yul\":8771:8777   */\n      dup3\n        /* \"#utility.yul\":8767:8784   */\n      and\n        /* \"#utility.yul\":8757:8784   */\n      swap2\n      pop\n        /* \"#utility.yul\":8713:8794   */\n    tag_269:\n        /* \"#utility.yul\":8841:8843   */\n      0x20\n        /* \"#utility.yul\":8833:8839   */\n      dup3\n        /* \"#utility.yul\":8830:8844   */\n      lt\n        /* \"#utility.yul\":8810:8828   */\n      dup2\n        /* \"#utility.yul\":8807:8845   */\n      eq\n        /* \"#utility.yul\":8804:8888   */\n      iszero\n      tag_270\n      jumpi\n        /* \"#utility.yul\":8860:8878   */\n      tag_271\n      tag_272\n      jump\t// in\n    tag_271:\n        /* \"#utility.yul\":8804:8888   */\n    tag_270:\n        /* \"#utility.yul\":8625:8894   */\n      pop\n        /* \"#utility.yul\":8574:8894   */\n      swap2\n      swap1\n      pop\n      jump\t// out\n        /* \"#utility.yul\":8900:9181   */\n    tag_221:\n        /* \"#utility.yul\":8983:9010   */\n      tag_274\n        /* \"#utility.yul\":9005:9009   */\n      dup3\n        /* \"#utility.yul\":8983:9010   */\n      tag_200\n      jump\t// in\n    tag_274:\n        /* \"#utility.yul\":8975:8981   */\n      dup2\n        /* \"#utility.yul\":8971:9011   */\n      add\n        /* \"#utility.yul\":9113:9119   */\n      dup2\n        /* \"#utility.yul\":9101:9111   */\n      dup2\n        /* \"#utility.yul\":9098:9120   */\n      lt\n        /* \"#utility.yul\":9077:9095   */\n      0xffffffffffffffff\n        /* \"#utility.yul\":9065:9075   */\n      dup3\n        /* \"#utility.yul\":9062:9096   */\n      gt\n        /* \"#utility.yul\":9059:9121   */\n      or\n        /* \"#utility.yul\":9056:9144   */\n      iszero\n      tag_275\n      jumpi\n        /* \"#utility.yul\":9124:9142   */\n      tag_276\n      tag_226\n      jump\t// in\n    tag_276:\n        /* \"#utility.yul\":9056:9144   */\n    tag_275:\n        /* \"#utility.yul\":9164:9174   */\n      dup1\n        /* \"#utility.yul\":9160:9162   */\n      0x40\n        /* \"#utility.yul\":9153:9175   */\n      mstore\n        /* \"#utility.yul\":8943:9181   */\n      pop\n        /* \"#utility.yul\":8900:9181   */\n      pop\n      pop\n      jump\t// out\n        /* \"#utility.yul\":9187:9367   */\n    tag_126:\n        /* \"#utility.yul\":9235:9312   */\n      0x4e487b7100000000000000000000000000000000000000000000000000000000\n        /* \"#utility.yul\":9232:9233   */\n      0x00\n        /* \"#utility.yul\":9225:9313   */\n      mstore\n        /* \"#utility.yul\":9332:9336   */\n      0x01\n        /* \"#utility.yul\":9329:9330   */\n      0x04\n        /* \"#utility.yul\":9322:9337   */\n      mstore\n        /* \"#utility.yul\":9356:9360   */\n      0x24\n        /* \"#utility.yul\":9353:9354   */\n      0x00\n        /* \"#utility.yul\":9346:9361   */\n      revert\n        /* \"#utility.yul\":9373:9553   */\n    tag_235:\n        /* \"#utility.yul\":9421:9498   */\n      0x4e487b7100000000000000000000000000000000000000000000000000000000\n        /* \"#utility.yul\":9418:9419   */\n      0x00\n        /* \"#utility.yul\":9411:9499   */\n      mstore\n        /* \"#utility.yul\":9518:9522   */\n      0x11\n        /* \"#utility.yul\":9515:9516   */\n      0x04\n        /* \"#utility.yul\":9508:9523   */\n      mstore\n        /* \"#utility.yul\":9542:9546   */\n      0x24\n        /* \"#utility.yul\":9539:9540   */\n      0x00\n        /* \"#utility.yul\":9532:9547   */\n      revert\n        /* \"#utility.yul\":9559:9739   */\n    tag_241:\n        /* \"#utility.yul\":9607:9684   */\n      0x4e487b7100000000000000000000000000000000000000000000000000000000\n        /* \"#utility.yul\":9604:9605   */\n      0x00\n        /* \"#utility.yul\":9597:9685   */\n      mstore\n        /* \"#utility.yul\":9704:9708   */\n      0x12\n        /* \"#utility.yul\":9701:9702   */\n      0x04\n        /* \"#utility.yul\":9694:9709   */\n      mstore\n        /* \"#utility.yul\":9728:9732   */\n      0x24\n        /* \"#utility.yul\":9725:9726   */\n      0x00\n        /* \"#utility.yul\":9718:9733   */\n      revert\n        /* \"#utility.yul\":9745:9925   */\n    tag_272:\n        /* \"#utility.yul\":9793:9870   */\n      0x4e487b7100000000000000000000000000000000000000000000000000000000\n        /* \"#utility.yul\":9790:9791   */\n      0x00\n        /* \"#utility.yul\":9783:9871   */\n      mstore\n        /* \"#utility.yul\":9890:9894   */\n      0x22\n        /* \"#utility.yul\":9887:9888   */\n      0x04\n        /* \"#utility.yul\":9880:9895   */\n      mstore\n        /* \"#utility.yul\":9914:9918   */\n      0x24\n        /* \"#utility.yul\":9911:9912   */\n      0x00\n        /* \"#utility.yul\":9904:9919   */\n      revert\n        /* \"#utility.yul\":9931:10111   */\n    tag_226:\n        /* \"#utility.yul\":9979:10056   */\n      0x4e487b7100000000000000000000000000000000000000000000000000000000\n        /* \"#utility.yul\":9976:9977   */\n      0x00\n        /* \"#utility.yul\":9969:10057   */\n      mstore\n        /* \"#utility.yul\":10076:10080   */\n      0x41\n        /* \"#utility.yul\":10073:10074   */\n      0x04\n        /* \"#utility.yul\":10066:10081   */\n      mstore\n        /* \"#utility.yul\":10100:10104   */\n      0x24\n        /* \"#utility.yul\":10097:10098   */\n      0x00\n        /* \"#utility.yul\":10090:10105   */\n      revert\n        /* \"#utility.yul\":10117:10234   */\n    tag_151:\n        /* \"#utility.yul\":10226:10227   */\n      0x00\n        /* \"#utility.yul\":10223:10224   */\n      dup1\n        /* \"#utility.yul\":10216:10228   */\n      revert\n        /* \"#utility.yul\":10240:10357   */\n    tag_136:\n        /* \"#utility.yul\":10349:10350   */\n      0x00\n        /* \"#utility.yul\":10346:10347   */\n      dup1\n        /* \"#utility.yul\":10339:10351   */\n      revert\n        /* \"#utility.yul\":10363:10480   */\n    tag_180:\n        /* \"#utility.yul\":10472:10473   */\n      0x00\n        /* \"#utility.yul\":10469:10470   */\n      dup1\n        /* \"#utility.yul\":10462:10474   */\n      revert\n        /* \"#utility.yul\":10486:10603   */\n    tag_160:\n        /* \"#utility.yul\":10595:10596   */\n      0x00\n        /* \"#utility.yul\":10592:10593   */\n      dup1\n        /* \"#utility.yul\":10585:10597   */\n      revert\n        /* \"#utility.yul\":10609:10711   */\n    tag_200:\n        /* \"#utility.yul\":10650:10656   */\n      0x00\n        /* \"#utility.yul\":10701:10703   */\n      0x1f\n        /* \"#utility.yul\":10697:10704   */\n      not\n        /* \"#utility.yul\":10692:10694   */\n      0x1f\n        /* \"#utility.yul\":10685:10690   */\n      dup4\n        /* \"#utility.yul\":10681:10695   */\n      add\n        /* \"#utility.yul\":10677:10705   */\n      and\n        /* \"#utility.yul\":10667:10705   */\n      swap1\n      pop\n        /* \"#utility.yul\":10609:10711   */\n      swap2\n      swap1\n      pop\n      jump\t// out\n        /* \"#utility.yul\":10717:10839   */\n    tag_142:\n        /* \"#utility.yul\":10790:10814   */\n      tag_288\n        /* \"#utility.yul\":10808:10813   */\n      dup2\n        /* \"#utility.yul\":10790:10814   */\n      tag_252\n      jump\t// in\n    tag_288:\n        /* \"#utility.yul\":10783:10788   */\n      dup2\n        /* \"#utility.yul\":10780:10815   */\n      eq\n        /* \"#utility.yul\":10770:10833   */\n      tag_289\n      jumpi\n        /* \"#utility.yul\":10829:10830   */\n      0x00\n        /* \"#utility.yul\":10826:10827   */\n      dup1\n        /* \"#utility.yul\":10819:10831   */\n      revert\n        /* \"#utility.yul\":10770:10833   */\n    tag_289:\n        /* \"#utility.yul\":10717:10839   */\n      pop\n      jump\t// out\n        /* \"#utility.yul\":10845:10965   */\n    tag_146:\n        /* \"#utility.yul\":10917:10940   */\n      tag_291\n        /* \"#utility.yul\":10934:10939   */\n      dup2\n        /* \"#utility.yul\":10917:10940   */\n      tag_257\n      jump\t// in\n    tag_291:\n        /* \"#utility.yul\":10910:10915   */\n      dup2\n        /* \"#utility.yul\":10907:10941   */\n      eq\n        /* \"#utility.yul\":10897:10959   */\n      tag_292\n      jumpi\n        /* \"#utility.yul\":10955:10956   */\n      0x00\n        /* \"#utility.yul\":10952:10953   */\n      dup1\n        /* \"#utility.yul\":10945:10957   */\n      revert\n        /* \"#utility.yul\":10897:10959   */\n    tag_292:\n        /* \"#utility.yul\":10845:10965   */\n      pop\n      jump\t// out\n        /* \"#utility.yul\":10971:11093   */\n    tag_156:\n        /* \"#utility.yul\":11044:11068   */\n      tag_294\n        /* \"#utility.yul\":11062:11067   */\n      dup2\n        /* \"#utility.yul\":11044:11068   */\n      tag_204\n      jump\t// in\n    tag_294:\n        /* \"#utility.yul\":11037:11042   */\n      dup2\n        /* \"#utility.yul\":11034:11069   */\n      eq\n        /* \"#utility.yul\":11024:11087   */\n      tag_295\n      jumpi\n        /* \"#utility.yul\":11083:11084   */\n      0x00\n        /* \"#utility.yul\":11080:11081   */\n      dup1\n        /* \"#utility.yul\":11073:11085   */\n      revert\n        /* \"#utility.yul\":11024:11087   */\n    tag_295:\n        /* \"#utility.yul\":10971:11093   */\n      pop\n      jump\t// out\n\n    auxdata: 0xa26469706673582212204fdb39cb417a662d68909f725b8aabe351670c4a7147a42d3e6a0ea2deb777bd64736f6c63430008070033\n}\n",
				"bytecode": {
					"linkReferences": {},
					"object": "60806040526040518060400160405280600881526020017f4d7920546f6b656e00000000000000000000000000000000000000000000000081525060009080519060200190620000519291906200014a565b506040518060400160405280600381526020017f4d544b0000000000000000000000000000000000000000000000000000000000815250600190805190602001906200009f9291906200014a565b506008600260006101000a81548160ff021916908360ff160217905550600260009054906101000a900460ff1660ff16600a620000dd919062000255565b620f4240620000ed919062000392565b600355348015620000fd57600080fd5b50600354600460003373ffffffffffffffffffffffffffffffffffffffff1673ffffffffffffffffffffffffffffffffffffffff168152602001908152602001600020819055506200049e565b8280546200015890620003fd565b90600052602060002090601f0160209004810192826200017c5760008555620001c8565b82601f106200019757805160ff1916838001178555620001c8565b82800160010185558215620001c8579182015b82811115620001c7578251825591602001919060010190620001aa565b5b509050620001d79190620001db565b5090565b5b80821115620001f6576000816000905550600101620001dc565b5090565b6000808291508390505b60018511156200024c5780860481111562000224576200022362000433565b5b6001851615620002345780820291505b8081029050620002448562000491565b945062000204565b94509492505050565b60006200026282620003f3565b91506200026f83620003f3565b92506200029e7fffffffffffffffffffffffffffffffffffffffffffffffffffffffffffffffff8484620002a6565b905092915050565b600082620002b857600190506200038b565b81620002c857600090506200038b565b8160018114620002e15760028114620002ec5762000322565b60019150506200038b565b60ff84111562000301576200030062000433565b5b8360020a9150848211156200031b576200031a62000433565b5b506200038b565b5060208310610133831016604e8410600b84101617156200035c5782820a90508381111562000356576200035562000433565b5b6200038b565b6200036b8484846001620001fa565b9250905081840481111562000385576200038462000433565b5b81810290505b9392505050565b60006200039f82620003f3565b9150620003ac83620003f3565b9250817fffffffffffffffffffffffffffffffffffffffffffffffffffffffffffffffff0483118215151615620003e857620003e762000433565b5b828202905092915050565b6000819050919050565b600060028204905060018216806200041657607f821691505b602082108114156200042d576200042c62000462565b5b50919050565b7f4e487b7100000000000000000000000000000000000000000000000000000000600052601160045260246000fd5b7f4e487b7100000000000000000000000000000000000000000000000000000000600052602260045260246000fd5b60008160011c9050919050565b6113e580620004ae6000396000f3fe608060405234801561001057600080fd5b50600436106100ea5760003560e01c806361990fdc1161008c578063a6c807a911610066578063a6c807a91461025f578063a9059cbb1461028f578063dd62ed3e146102bf578063f5ab16cc146102ef576100ea565b806361990fdc146101f557806370a082311461021157806395d89b4114610241576100ea565b806318160ddd116100c857806318160ddd146101595780631b1a1e241461017757806323b872dd146101a7578063313ce567146101d7576100ea565b806306fdde03146100ef578063095ea7b31461010d5780630aab30a91461013d575b600080fd5b6100f761030b565b6040516101049190610f77565b60405180910390f35b61012760048036038101906101229190610eb6565b610399565b6040516101349190610f5c565b60405180910390f35b61015760048036038101906101529190610e47565b61048b565b005b610161610584565b60405161016e9190610f99565b60405180910390f35b610191600480360381019061018c9190610d87565b61058a565b60405161019e9190610f99565b60405180910390f35b6101c160048036038101906101bc9190610df4565b6105a2565b6040516101ce9190610f5c565b60405180910390f35b6101df6106d6565b6040516101ec9190610fb4565b60405180910390f35b61020f600480360381019061020a9190610eb6565b6106e9565b005b61022b60048036038101906102269190610d87565b610799565b6040516102389190610f99565b60405180910390f35b6102496107b1565b6040516102569190610f77565b60405180910390f35b61027960048036038101906102749190610d87565b61083f565b6040516102869190610f5c565b60405180910390f35b6102a960048036038101906102a49190610eb6565b61085f565b6040516102b69190610f5c565b60405180910390f35b6102d960048036038101906102d49190610db4565b610876565b6040516102e69190610f99565b60405180910390f35b61030960048036038101906103049190610d87565b61089b565b005b60008054610318906111f7565b80601f0160208091040260200160405190810160405280929190818152602001828054610344906111f7565b80156103915780601f1061036657610100808354040283529160200191610391565b820191906000526020600020905b81548152906001019060200180831161037457829003601f168201915b505050505081565b600081600560003373ffffffffffffffffffffffffffffffffffffffff1673ffffffffffffffffffffffffffffffffffffffff16815260200190815260200160002060008573ffffffffffffffffffffffffffffffffffffffff1673ffffffffffffffffffffffffffffffffffffffff168152602001908152602001600020819055508273ffffffffffffffffffffffffffffffffffffffff163373ffffffffffffffffffffffffffffffffffffffff167f8c5be1e5ebec7d5bd14f71427d1e84f3dd0314c0f7b2291e5b200ac8c7c3b925846040516104799190610f99565b60405180910390a36001905092915050565b600660008473ffffffffffffffffffffffffffffffffffffffff1673ffffffffffffffffffffffffffffffffffffffff16815260200190815260200160002060009054906101000a900460ff16156104e257600080fd5b6001600660008573ffffffffffffffffffffffffffffffffffffffff1673ffffffffffffffffffffffffffffffffffffffff16815260200190815260200160002060006101000a81548160ff0219169083151502179055506000600760008573ffffffffffffffffffffffffffffffffffffffff1673ffffffffffffffffffffffffffffffffffffffff16815260200190815260200160002081905550505050565b60035481565b60076020528060005260406000206000915090505481565b6000600560008573ffffffffffffffffffffffffffffffffffffffff1673ffffffffffffffffffffffffffffffffffffffff16815260200190815260200160002060003373ffffffffffffffffffffffffffffffffffffffff1673ffffffffffffffffffffffffffffffffffffffff1681526020019081526020016000205482111561062d57600080fd5b81600560008673ffffffffffffffffffffffffffffffffffffffff1673ffffffffffffffffffffffffffffffffffffffff16815260200190815260200160002060003373ffffffffffffffffffffffffffffffffffffffff1673ffffffffffffffffffffffffffffffffffffffff16815260200190815260200160002060008282546106b99190611122565b925050819055506106cb84848461097e565b600190509392505050565b600260009054906101000a900460ff1681565b600660008373ffffffffffffffffffffffffffffffffffffffff1673ffffffffffffffffffffffffffffffffffffffff16815260200190815260200160002060009054906101000a900460ff1661073f57600080fd5b80600760008473ffffffffffffffffffffffffffffffffffffffff1673ffffffffffffffffffffffffffffffffffffffff168152602001908152602001600020600082825461078e9190611041565b925050819055505050565b60046020528060005260406000206000915090505481565b600180546107be906111f7565b80601f01602080910402602001604051908101604052809291908181526020018280546107ea906111f7565b80156108375780601f1061080c57610100808354040283529160200191610837565b820191906000526020600020905b81548152906001019060200180831161081a57829003601f168201915b505050505081565b60066020528060005260406000206000915054906101000a900460ff1681565b600061086c33848461097e565b6001905092915050565b6005602052816000526040600020602052806000526040600020600091509150505481565b600660008273ffffffffffffffffffffffffffffffffffffffff1673ffffffffffffffffffffffffffffffffffffffff16815260200190815260200160002060009054906101000a900460ff166108f157600080fd5b60006101f4612710600760008573ffffffffffffffffffffffffffffffffffffffff1673ffffffffffffffffffffffffffffffffffffffff1681526020019081526020016000205461094391906110c8565b61094d9190611097565b905060006127106003548361096291906110c8565b61096c9190611097565b905061097933848361097e565b505050565b600073ffffffffffffffffffffffffffffffffffffffff168273ffffffffffffffffffffffffffffffffffffffff1614156109b857600080fd5b80600460008573ffffffffffffffffffffffffffffffffffffffff1673ffffffffffffffffffffffffffffffffffffffff168152602001908152602001600020541015610a0457600080fd5b600460008373ffffffffffffffffffffffffffffffffffffffff1673ffffffffffffffffffffffffffffffffffffffff1681526020019081526020016000205481600460008573ffffffffffffffffffffffffffffffffffffffff1673ffffffffffffffffffffffffffffffffffffffff16815260200190815260200160002054610a8f9190611041565b1015610a9a57600080fd5b6000600460008473ffffffffffffffffffffffffffffffffffffffff1673ffffffffffffffffffffffffffffffffffffffff16815260200190815260200160002054600460008673ffffffffffffffffffffffffffffffffffffffff1673ffffffffffffffffffffffffffffffffffffffff16815260200190815260200160002054610b269190611041565b905081600460008673ffffffffffffffffffffffffffffffffffffffff1673ffffffffffffffffffffffffffffffffffffffff1681526020019081526020016000206000828254610b779190611122565b9250508190555081600460008573ffffffffffffffffffffffffffffffffffffffff1673ffffffffffffffffffffffffffffffffffffffff1681526020019081526020016000206000828254610bcd9190611041565b925050819055508273ffffffffffffffffffffffffffffffffffffffff168473ffffffffffffffffffffffffffffffffffffffff167fddf252ad1be2c89b69c2b068fc378daa952ba7f163c4a11628f55a4df523b3ef84604051610c319190610f99565b60405180910390a380600460008573ffffffffffffffffffffffffffffffffffffffff1673ffffffffffffffffffffffffffffffffffffffff16815260200190815260200160002054600460008773ffffffffffffffffffffffffffffffffffffffff1673ffffffffffffffffffffffffffffffffffffffff16815260200190815260200160002054610cc49190611041565b14610cd257610cd161125a565b5b50505050565b6000610ceb610ce684610ff4565b610fcf565b905082815260208101848484011115610d0757610d0661134a565b5b610d128482856111b5565b509392505050565b600081359050610d298161136a565b92915050565b600081359050610d3e81611381565b92915050565b600082601f830112610d5957610d58611345565b5b8135610d69848260208601610cd8565b91505092915050565b600081359050610d8181611398565b92915050565b600060208284031215610d9d57610d9c611354565b5b6000610dab84828501610d1a565b91505092915050565b60008060408385031215610dcb57610dca611354565b5b6000610dd985828601610d1a565b9250506020610dea85828601610d1a565b9150509250929050565b600080600060608486031215610e0d57610e0c611354565b5b6000610e1b86828701610d1a565b9350506020610e2c86828701610d1a565b9250506040610e3d86828701610d72565b9150509250925092565b600080600060608486031215610e6057610e5f611354565b5b6000610e6e86828701610d1a565b9350506020610e7f86828701610d2f565b925050604084013567ffffffffffffffff811115610ea057610e9f61134f565b5b610eac86828701610d44565b9150509250925092565b60008060408385031215610ecd57610ecc611354565b5b6000610edb85828601610d1a565b9250506020610eec85828601610d72565b9150509250929050565b610eff81611168565b82525050565b6000610f1082611025565b610f1a8185611030565b9350610f2a8185602086016111c4565b610f3381611359565b840191505092915050565b610f478161119e565b82525050565b610f56816111a8565b82525050565b6000602082019050610f716000830184610ef6565b92915050565b60006020820190508181036000830152610f918184610f05565b905092915050565b6000602082019050610fae6000830184610f3e565b92915050565b6000602082019050610fc96000830184610f4d565b92915050565b6000610fd9610fea565b9050610fe58282611229565b919050565b6000604051905090565b600067ffffffffffffffff82111561100f5761100e611316565b5b61101882611359565b9050602081019050919050565b600081519050919050565b600082825260208201905092915050565b600061104c8261119e565b91506110578361119e565b9250827fffffffffffffffffffffffffffffffffffffffffffffffffffffffffffffffff0382111561108c5761108b611289565b5b828201905092915050565b60006110a28261119e565b91506110ad8361119e565b9250826110bd576110bc6112b8565b5b828204905092915050565b60006110d38261119e565b91506110de8361119e565b9250817fffffffffffffffffffffffffffffffffffffffffffffffffffffffffffffffff048311821515161561111757611116611289565b5b828202905092915050565b600061112d8261119e565b91506111388361119e565b92508282101561114b5761114a611289565b5b828203905092915050565b60006111618261117e565b9050919050565b60008115159050919050565b6000819050919050565b600073ffffffffffffffffffffffffffffffffffffffff82169050919050565b6000819050919050565b600060ff82169050919050565b82818337600083830152505050565b60005b838110156111e25780820151818401526020810190506111c7565b838111156111f1576000848401525b50505050565b6000600282049050600182168061120f57607f821691505b60208210811415611223576112226112e7565b5b50919050565b61123282611359565b810181811067ffffffffffffffff8211171561125157611250611316565b5b80604052505050565b7f4e487b7100000000000000000000000000000000000000000000000000000000600052600160045260246000fd5b7f4e487b7100000000000000000000000000000000000000000000000000000000600052601160045260246000fd5b7f4e487b7100000000000000000000000000000000000000000000000000000000600052601260045260246000fd5b7f4e487b7100000000000000000000000000000000000000000000000000000000600052602260045260246000fd5b7f4e487b7100000000000000000000000000000000000000000000000000000000600052604160045260246000fd5b600080fd5b600080fd5b600080fd5b600080fd5b6000601f19601f8301169050919050565b61137381611156565b811461137e57600080fd5b50565b61138a81611174565b811461139557600080fd5b50565b6113a18161119e565b81146113ac57600080fd5b5056fea26469706673582212204fdb39cb417a662d68909f725b8aabe351670c4a7147a42d3e6a0ea2deb777bd64736f6c63430008070033",
					"opcodes": "PUSH1 0x80 PUSH1 0x40 MSTORE PUSH1 0x40 MLOAD DUP1 PUSH1 0x40 ADD PUSH1 0x40 MSTORE DUP1 PUSH1 0x8 DUP2 MSTORE PUSH1 0x20 ADD PUSH32 0x4D7920546F6B656E000000000000000000000000000000000000000000000000 DUP2 MSTORE POP PUSH1 0x0 SWAP1 DUP1 MLOAD SWAP1 PUSH1 0x20 ADD SWAP1 PUSH3 0x51 SWAP3 SWAP2 SWAP1 PUSH3 0x14A JUMP JUMPDEST POP PUSH1 0x40 MLOAD DUP1 PUSH1 0x40 ADD PUSH1 0x40 MSTORE DUP1 PUSH1 0x3 DUP2 MSTORE PUSH1 0x20 ADD PUSH32 0x4D544B0000000000000000000000000000000000000000000000000000000000 DUP2 MSTORE POP PUSH1 0x1 SWAP1 DUP1 MLOAD SWAP1 PUSH1 0x20 ADD SWAP1 PUSH3 0x9F SWAP3 SWAP2 SWAP1 PUSH3 0x14A JUMP JUMPDEST POP PUSH1 0x8 PUSH1 0x2 PUSH1 0x0 PUSH2 0x100 EXP DUP2 SLOAD DUP2 PUSH1 0xFF MUL NOT AND SWAP1 DUP4 PUSH1 0xFF AND MUL OR SWAP1 SSTORE POP PUSH1 0x2 PUSH1 0x0 SWAP1 SLOAD SWAP1 PUSH2 0x100 EXP SWAP1 DIV PUSH1 0xFF AND PUSH1 0xFF AND PUSH1 0xA PUSH3 0xDD SWAP2 SWAP1 PUSH3 0x255 JUMP JUMPDEST PUSH3 0xF4240 PUSH3 0xED SWAP2 SWAP1 PUSH3 0x392 JUMP JUMPDEST PUSH1 0x3 SSTORE CALLVALUE DUP1 ISZERO PUSH3 0xFD JUMPI PUSH1 0x0 DUP1 REVERT JUMPDEST POP PUSH1 0x3 SLOAD PUSH1 0x4 PUSH1 0x0 CALLER PUSH20 0xFFFFFFFFFFFFFFFFFFFFFFFFFFFFFFFFFFFFFFFF AND PUSH20 0xFFFFFFFFFFFFFFFFFFFFFFFFFFFFFFFFFFFFFFFF AND DUP2 MSTORE PUSH1 0x20 ADD SWAP1 DUP2 MSTORE PUSH1 0x20 ADD PUSH1 0x0 KECCAK256 DUP2 SWAP1 SSTORE POP PUSH3 0x49E JUMP JUMPDEST DUP3 DUP1 SLOAD PUSH3 0x158 SWAP1 PUSH3 0x3FD JUMP JUMPDEST SWAP1 PUSH1 0x0 MSTORE PUSH1 0x20 PUSH1 0x0 KECCAK256 SWAP1 PUSH1 0x1F ADD PUSH1 0x20 SWAP1 DIV DUP2 ADD SWAP3 DUP3 PUSH3 0x17C JUMPI PUSH1 0x0 DUP6 SSTORE PUSH3 0x1C8 JUMP JUMPDEST DUP3 PUSH1 0x1F LT PUSH3 0x197 JUMPI DUP1 MLOAD PUSH1 0xFF NOT AND DUP4 DUP1 ADD OR DUP6 SSTORE PUSH3 0x1C8 JUMP JUMPDEST DUP3 DUP1 ADD PUSH1 0x1 ADD DUP6 SSTORE DUP3 ISZERO PUSH3 0x1C8 JUMPI SWAP2 DUP3 ADD JUMPDEST DUP3 DUP2 GT ISZERO PUSH3 0x1C7 JUMPI DUP3 MLOAD DUP3 SSTORE SWAP2 PUSH1 0x20 ADD SWAP2 SWAP1 PUSH1 0x1 ADD SWAP1 PUSH3 0x1AA JUMP JUMPDEST JUMPDEST POP SWAP1 POP PUSH3 0x1D7 SWAP2 SWAP1 PUSH3 0x1DB JUMP JUMPDEST POP SWAP1 JUMP JUMPDEST JUMPDEST DUP1 DUP3 GT ISZERO PUSH3 0x1F6 JUMPI PUSH1 0x0 DUP2 PUSH1 0x0 SWAP1 SSTORE POP PUSH1 0x1 ADD PUSH3 0x1DC JUMP JUMPDEST POP SWAP1 JUMP JUMPDEST PUSH1 0x0 DUP1 DUP3 SWAP2 POP DUP4 SWAP1 POP JUMPDEST PUSH1 0x1 DUP6 GT ISZERO PUSH3 0x24C JUMPI DUP1 DUP7 DIV DUP2 GT ISZERO PUSH3 0x224 JUMPI PUSH3 0x223 PUSH3 0x433 JUMP JUMPDEST JUMPDEST PUSH1 0x1 DUP6 AND ISZERO PUSH3 0x234 JUMPI DUP1 DUP3 MUL SWAP2 POP JUMPDEST DUP1 DUP2 MUL SWAP1 POP PUSH3 0x244 DUP6 PUSH3 0x491 JUMP JUMPDEST SWAP5 POP PUSH3 0x204 JUMP JUMPDEST SWAP5 POP SWAP5 SWAP3 POP POP POP JUMP JUMPDEST PUSH1 0x0 PUSH3 0x262 DUP3 PUSH3 0x3F3 JUMP JUMPDEST SWAP2 POP PUSH3 0x26F DUP4 PUSH3 0x3F3 JUMP JUMPDEST SWAP3 POP PUSH3 0x29E PUSH32 0xFFFFFFFFFFFFFFFFFFFFFFFFFFFFFFFFFFFFFFFFFFFFFFFFFFFFFFFFFFFFFFFF DUP5 DUP5 PUSH3 0x2A6 JUMP JUMPDEST SWAP1 POP SWAP3 SWAP2 POP POP JUMP JUMPDEST PUSH1 0x0 DUP3 PUSH3 0x2B8 JUMPI PUSH1 0x1 SWAP1 POP PUSH3 0x38B JUMP JUMPDEST DUP2 PUSH3 0x2C8 JUMPI PUSH1 0x0 SWAP1 POP PUSH3 0x38B JUMP JUMPDEST DUP2 PUSH1 0x1 DUP2 EQ PUSH3 0x2E1 JUMPI PUSH1 0x2 DUP2 EQ PUSH3 0x2EC JUMPI PUSH3 0x322 JUMP JUMPDEST PUSH1 0x1 SWAP2 POP POP PUSH3 0x38B JUMP JUMPDEST PUSH1 0xFF DUP5 GT ISZERO PUSH3 0x301 JUMPI PUSH3 0x300 PUSH3 0x433 JUMP JUMPDEST JUMPDEST DUP4 PUSH1 0x2 EXP SWAP2 POP DUP5 DUP3 GT ISZERO PUSH3 0x31B JUMPI PUSH3 0x31A PUSH3 0x433 JUMP JUMPDEST JUMPDEST POP PUSH3 0x38B JUMP JUMPDEST POP PUSH1 0x20 DUP4 LT PUSH2 0x133 DUP4 LT AND PUSH1 0x4E DUP5 LT PUSH1 0xB DUP5 LT AND OR ISZERO PUSH3 0x35C JUMPI DUP3 DUP3 EXP SWAP1 POP DUP4 DUP2 GT ISZERO PUSH3 0x356 JUMPI PUSH3 0x355 PUSH3 0x433 JUMP JUMPDEST JUMPDEST PUSH3 0x38B JUMP JUMPDEST PUSH3 0x36B DUP5 DUP5 DUP5 PUSH1 0x1 PUSH3 0x1FA JUMP JUMPDEST SWAP3 POP SWAP1 POP DUP2 DUP5 DIV DUP2 GT ISZERO PUSH3 0x385 JUMPI PUSH3 0x384 PUSH3 0x433 JUMP JUMPDEST JUMPDEST DUP2 DUP2 MUL SWAP1 POP JUMPDEST SWAP4 SWAP3 POP POP POP JUMP JUMPDEST PUSH1 0x0 PUSH3 0x39F DUP3 PUSH3 0x3F3 JUMP JUMPDEST SWAP2 POP PUSH3 0x3AC DUP4 PUSH3 0x3F3 JUMP JUMPDEST SWAP3 POP DUP2 PUSH32 0xFFFFFFFFFFFFFFFFFFFFFFFFFFFFFFFFFFFFFFFFFFFFFFFFFFFFFFFFFFFFFFFF DIV DUP4 GT DUP3 ISZERO ISZERO AND ISZERO PUSH3 0x3E8 JUMPI PUSH3 0x3E7 PUSH3 0x433 JUMP JUMPDEST JUMPDEST DUP3 DUP3 MUL SWAP1 POP SWAP3 SWAP2 POP POP JUMP JUMPDEST PUSH1 0x0 DUP2 SWAP1 POP SWAP2 SWAP1 POP JUMP JUMPDEST PUSH1 0x0 PUSH1 0x2 DUP3 DIV SWAP1 POP PUSH1 0x1 DUP3 AND DUP1 PUSH3 0x416 JUMPI PUSH1 0x7F DUP3 AND SWAP2 POP JUMPDEST PUSH1 0x20 DUP3 LT DUP2 EQ ISZERO PUSH3 0x42D JUMPI PUSH3 0x42C PUSH3 0x462 JUMP JUMPDEST JUMPDEST POP SWAP2 SWAP1 POP JUMP JUMPDEST PUSH32 0x4E487B7100000000000000000000000000000000000000000000000000000000 PUSH1 0x0 MSTORE PUSH1 0x11 PUSH1 0x4 MSTORE PUSH1 0x24 PUSH1 0x0 REVERT JUMPDEST PUSH32 0x4E487B7100000000000000000000000000000000000000000000000000000000 PUSH1 0x0 MSTORE PUSH1 0x22 PUSH1 0x4 MSTORE PUSH1 0x24 PUSH1 0x0 REVERT JUMPDEST PUSH1 0x0 DUP2 PUSH1 0x1 SHR SWAP1 POP SWAP2 SWAP1 POP JUMP JUMPDEST PUSH2 0x13E5 DUP1 PUSH3 0x4AE PUSH1 0x0 CODECOPY PUSH1 0x0 RETURN INVALID PUSH1 0x80 PUSH1 0x40 MSTORE CALLVALUE DUP1 ISZERO PUSH2 0x10 JUMPI PUSH1 0x0 DUP1 REVERT JUMPDEST POP PUSH1 0x4 CALLDATASIZE LT PUSH2 0xEA JUMPI PUSH1 0x0 CALLDATALOAD PUSH1 0xE0 SHR DUP1 PUSH4 0x61990FDC GT PUSH2 0x8C JUMPI DUP1 PUSH4 0xA6C807A9 GT PUSH2 0x66 JUMPI DUP1 PUSH4 0xA6C807A9 EQ PUSH2 0x25F JUMPI DUP1 PUSH4 0xA9059CBB EQ PUSH2 0x28F JUMPI DUP1 PUSH4 0xDD62ED3E EQ PUSH2 0x2BF JUMPI DUP1 PUSH4 0xF5AB16CC EQ PUSH2 0x2EF JUMPI PUSH2 0xEA JUMP JUMPDEST DUP1 PUSH4 0x61990FDC EQ PUSH2 0x1F5 JUMPI DUP1 PUSH4 0x70A08231 EQ PUSH2 0x211 JUMPI DUP1 PUSH4 0x95D89B41 EQ PUSH2 0x241 JUMPI PUSH2 0xEA JUMP JUMPDEST DUP1 PUSH4 0x18160DDD GT PUSH2 0xC8 JUMPI DUP1 PUSH4 0x18160DDD EQ PUSH2 0x159 JUMPI DUP1 PUSH4 0x1B1A1E24 EQ PUSH2 0x177 JUMPI DUP1 PUSH4 0x23B872DD EQ PUSH2 0x1A7 JUMPI DUP1 PUSH4 0x313CE567 EQ PUSH2 0x1D7 JUMPI PUSH2 0xEA JUMP JUMPDEST DUP1 PUSH4 0x6FDDE03 EQ PUSH2 0xEF JUMPI DUP1 PUSH4 0x95EA7B3 EQ PUSH2 0x10D JUMPI DUP1 PUSH4 0xAAB30A9 EQ PUSH2 0x13D JUMPI JUMPDEST PUSH1 0x0 DUP1 REVERT JUMPDEST PUSH2 0xF7 PUSH2 0x30B JUMP JUMPDEST PUSH1 0x40 MLOAD PUSH2 0x104 SWAP2 SWAP1 PUSH2 0xF77 JUMP JUMPDEST PUSH1 0x40 MLOAD DUP1 SWAP2 SUB SWAP1 RETURN JUMPDEST PUSH2 0x127 PUSH1 0x4 DUP1 CALLDATASIZE SUB DUP2 ADD SWAP1 PUSH2 0x122 SWAP2 SWAP1 PUSH2 0xEB6 JUMP JUMPDEST PUSH2 0x399 JUMP JUMPDEST PUSH1 0x40 MLOAD PUSH2 0x134 SWAP2 SWAP1 PUSH2 0xF5C JUMP JUMPDEST PUSH1 0x40 MLOAD DUP1 SWAP2 SUB SWAP1 RETURN JUMPDEST PUSH2 0x157 PUSH1 0x4 DUP1 CALLDATASIZE SUB DUP2 ADD SWAP1 PUSH2 0x152 SWAP2 SWAP1 PUSH2 0xE47 JUMP JUMPDEST PUSH2 0x48B JUMP JUMPDEST STOP JUMPDEST PUSH2 0x161 PUSH2 0x584 JUMP JUMPDEST PUSH1 0x40 MLOAD PUSH2 0x16E SWAP2 SWAP1 PUSH2 0xF99 JUMP JUMPDEST PUSH1 0x40 MLOAD DUP1 SWAP2 SUB SWAP1 RETURN JUMPDEST PUSH2 0x191 PUSH1 0x4 DUP1 CALLDATASIZE SUB DUP2 ADD SWAP1 PUSH2 0x18C SWAP2 SWAP1 PUSH2 0xD87 JUMP JUMPDEST PUSH2 0x58A JUMP JUMPDEST PUSH1 0x40 MLOAD PUSH2 0x19E SWAP2 SWAP1 PUSH2 0xF99 JUMP JUMPDEST PUSH1 0x40 MLOAD DUP1 SWAP2 SUB SWAP1 RETURN JUMPDEST PUSH2 0x1C1 PUSH1 0x4 DUP1 CALLDATASIZE SUB DUP2 ADD SWAP1 PUSH2 0x1BC SWAP2 SWAP1 PUSH2 0xDF4 JUMP JUMPDEST PUSH2 0x5A2 JUMP JUMPDEST PUSH1 0x40 MLOAD PUSH2 0x1CE SWAP2 SWAP1 PUSH2 0xF5C JUMP JUMPDEST PUSH1 0x40 MLOAD DUP1 SWAP2 SUB SWAP1 RETURN JUMPDEST PUSH2 0x1DF PUSH2 0x6D6 JUMP JUMPDEST PUSH1 0x40 MLOAD PUSH2 0x1EC SWAP2 SWAP1 PUSH2 0xFB4 JUMP JUMPDEST PUSH1 0x40 MLOAD DUP1 SWAP2 SUB SWAP1 RETURN JUMPDEST PUSH2 0x20F PUSH1 0x4 DUP1 CALLDATASIZE SUB DUP2 ADD SWAP1 PUSH2 0x20A SWAP2 SWAP1 PUSH2 0xEB6 JUMP JUMPDEST PUSH2 0x6E9 JUMP JUMPDEST STOP JUMPDEST PUSH2 0x22B PUSH1 0x4 DUP1 CALLDATASIZE SUB DUP2 ADD SWAP1 PUSH2 0x226 SWAP2 SWAP1 PUSH2 0xD87 JUMP JUMPDEST PUSH2 0x799 JUMP JUMPDEST PUSH1 0x40 MLOAD PUSH2 0x238 SWAP2 SWAP1 PUSH2 0xF99 JUMP JUMPDEST PUSH1 0x40 MLOAD DUP1 SWAP2 SUB SWAP1 RETURN JUMPDEST PUSH2 0x249 PUSH2 0x7B1 JUMP JUMPDEST PUSH1 0x40 MLOAD PUSH2 0x256 SWAP2 SWAP1 PUSH2 0xF77 JUMP JUMPDEST PUSH1 0x40 MLOAD DUP1 SWAP2 SUB SWAP1 RETURN JUMPDEST PUSH2 0x279 PUSH1 0x4 DUP1 CALLDATASIZE SUB DUP2 ADD SWAP1 PUSH2 0x274 SWAP2 SWAP1 PUSH2 0xD87 JUMP JUMPDEST PUSH2 0x83F JUMP JUMPDEST PUSH1 0x40 MLOAD PUSH2 0x286 SWAP2 SWAP1 PUSH2 0xF5C JUMP JUMPDEST PUSH1 0x40 MLOAD DUP1 SWAP2 SUB SWAP1 RETURN JUMPDEST PUSH2 0x2A9 PUSH1 0x4 DUP1 CALLDATASIZE SUB DUP2 ADD SWAP1 PUSH2 0x2A4 SWAP2 SWAP1 PUSH2 0xEB6 JUMP JUMPDEST PUSH2 0x85F JUMP JUMPDEST PUSH1 0x40 MLOAD PUSH2 0x2B6 SWAP2 SWAP1 PUSH2 0xF5C JUMP JUMPDEST PUSH1 0x40 MLOAD DUP1 SWAP2 SUB SWAP1 RETURN JUMPDEST PUSH2 0x2D9 PUSH1 0x4 DUP1 CALLDATASIZE SUB DUP2 ADD SWAP1 PUSH2 0x2D4 SWAP2 SWAP1 PUSH2 0xDB4 JUMP JUMPDEST PUSH2 0x876 JUMP JUMPDEST PUSH1 0x40 MLOAD PUSH2 0x2E6 SWAP2 SWAP1 PUSH2 0xF99 JUMP JUMPDEST PUSH1 0x40 MLOAD DUP1 SWAP2 SUB SWAP1 RETURN JUMPDEST PUSH2 0x309 PUSH1 0x4 DUP1 CALLDATASIZE SUB DUP2 ADD SWAP1 PUSH2 0x304 SWAP2 SWAP1 PUSH2 0xD87 JUMP JUMPDEST PUSH2 0x89B JUMP JUMPDEST STOP JUMPDEST PUSH1 0x0 DUP1 SLOAD PUSH2 0x318 SWAP1 PUSH2 0x11F7 JUMP JUMPDEST DUP1 PUSH1 0x1F ADD PUSH1 0x20 DUP1 SWAP2 DIV MUL PUSH1 0x20 ADD PUSH1 0x40 MLOAD SWAP1 DUP2 ADD PUSH1 0x40 MSTORE DUP1 SWAP3 SWAP2 SWAP1 DUP2 DUP2 MSTORE PUSH1 0x20 ADD DUP3 DUP1 SLOAD PUSH2 0x344 SWAP1 PUSH2 0x11F7 JUMP JUMPDEST DUP1 ISZERO PUSH2 0x391 JUMPI DUP1 PUSH1 0x1F LT PUSH2 0x366 JUMPI PUSH2 0x100 DUP1 DUP4 SLOAD DIV MUL DUP4 MSTORE SWAP2 PUSH1 0x20 ADD SWAP2 PUSH2 0x391 JUMP JUMPDEST DUP3 ADD SWAP2 SWAP1 PUSH1 0x0 MSTORE PUSH1 0x20 PUSH1 0x0 KECCAK256 SWAP1 JUMPDEST DUP2 SLOAD DUP2 MSTORE SWAP1 PUSH1 0x1 ADD SWAP1 PUSH1 0x20 ADD DUP1 DUP4 GT PUSH2 0x374 JUMPI DUP3 SWAP1 SUB PUSH1 0x1F AND DUP3 ADD SWAP2 JUMPDEST POP POP POP POP POP DUP2 JUMP JUMPDEST PUSH1 0x0 DUP2 PUSH1 0x5 PUSH1 0x0 CALLER PUSH20 0xFFFFFFFFFFFFFFFFFFFFFFFFFFFFFFFFFFFFFFFF AND PUSH20 0xFFFFFFFFFFFFFFFFFFFFFFFFFFFFFFFFFFFFFFFF AND DUP2 MSTORE PUSH1 0x20 ADD SWAP1 DUP2 MSTORE PUSH1 0x20 ADD PUSH1 0x0 KECCAK256 PUSH1 0x0 DUP6 PUSH20 0xFFFFFFFFFFFFFFFFFFFFFFFFFFFFFFFFFFFFFFFF AND PUSH20 0xFFFFFFFFFFFFFFFFFFFFFFFFFFFFFFFFFFFFFFFF AND DUP2 MSTORE PUSH1 0x20 ADD SWAP1 DUP2 MSTORE PUSH1 0x20 ADD PUSH1 0x0 KECCAK256 DUP2 SWAP1 SSTORE POP DUP3 PUSH20 0xFFFFFFFFFFFFFFFFFFFFFFFFFFFFFFFFFFFFFFFF AND CALLER PUSH20 0xFFFFFFFFFFFFFFFFFFFFFFFFFFFFFFFFFFFFFFFF AND PUSH32 0x8C5BE1E5EBEC7D5BD14F71427D1E84F3DD0314C0F7B2291E5B200AC8C7C3B925 DUP5 PUSH1 0x40 MLOAD PUSH2 0x479 SWAP2 SWAP1 PUSH2 0xF99 JUMP JUMPDEST PUSH1 0x40 MLOAD DUP1 SWAP2 SUB SWAP1 LOG3 PUSH1 0x1 SWAP1 POP SWAP3 SWAP2 POP POP JUMP JUMPDEST PUSH1 0x6 PUSH1 0x0 DUP5 PUSH20 0xFFFFFFFFFFFFFFFFFFFFFFFFFFFFFFFFFFFFFFFF AND PUSH20 0xFFFFFFFFFFFFFFFFFFFFFFFFFFFFFFFFFFFFFFFF AND DUP2 MSTORE PUSH1 0x20 ADD SWAP1 DUP2 MSTORE PUSH1 0x20 ADD PUSH1 0x0 KECCAK256 PUSH1 0x0 SWAP1 SLOAD SWAP1 PUSH2 0x100 EXP SWAP1 DIV PUSH1 0xFF AND ISZERO PUSH2 0x4E2 JUMPI PUSH1 0x0 DUP1 REVERT JUMPDEST PUSH1 0x1 PUSH1 0x6 PUSH1 0x0 DUP6 PUSH20 0xFFFFFFFFFFFFFFFFFFFFFFFFFFFFFFFFFFFFFFFF AND PUSH20 0xFFFFFFFFFFFFFFFFFFFFFFFFFFFFFFFFFFFFFFFF AND DUP2 MSTORE PUSH1 0x20 ADD SWAP1 DUP2 MSTORE PUSH1 0x20 ADD PUSH1 0x0 KECCAK256 PUSH1 0x0 PUSH2 0x100 EXP DUP2 SLOAD DUP2 PUSH1 0xFF MUL NOT AND SWAP1 DUP4 ISZERO ISZERO MUL OR SWAP1 SSTORE POP PUSH1 0x0 PUSH1 0x7 PUSH1 0x0 DUP6 PUSH20 0xFFFFFFFFFFFFFFFFFFFFFFFFFFFFFFFFFFFFFFFF AND PUSH20 0xFFFFFFFFFFFFFFFFFFFFFFFFFFFFFFFFFFFFFFFF AND DUP2 MSTORE PUSH1 0x20 ADD SWAP1 DUP2 MSTORE PUSH1 0x20 ADD PUSH1 0x0 KECCAK256 DUP2 SWAP1 SSTORE POP POP POP POP JUMP JUMPDEST PUSH1 0x3 SLOAD DUP2 JUMP JUMPDEST PUSH1 0x7 PUSH1 0x20 MSTORE DUP1 PUSH1 0x0 MSTORE PUSH1 0x40 PUSH1 0x0 KECCAK256 PUSH1 0x0 SWAP2 POP SWAP1 POP SLOAD DUP2 JUMP JUMPDEST PUSH1 0x0 PUSH1 0x5 PUSH1 0x0 DUP6 PUSH20 0xFFFFFFFFFFFFFFFFFFFFFFFFFFFFFFFFFFFFFFFF AND PUSH20 0xFFFFFFFFFFFFFFFFFFFFFFFFFFFFFFFFFFFFFFFF AND DUP2 MSTORE PUSH1 0x20 ADD SWAP1 DUP2 MSTORE PUSH1 0x20 ADD PUSH1 0x0 KECCAK256 PUSH1 0x0 CALLER PUSH20 0xFFFFFFFFFFFFFFFFFFFFFFFFFFFFFFFFFFFFFFFF AND PUSH20 0xFFFFFFFFFFFFFFFFFFFFFFFFFFFFFFFFFFFFFFFF AND DUP2 MSTORE PUSH1 0x20 ADD SWAP1 DUP2 MSTORE PUSH1 0x20 ADD PUSH1 0x0 KECCAK256 SLOAD DUP3 GT ISZERO PUSH2 0x62D JUMPI PUSH1 0x0 DUP1 REVERT JUMPDEST DUP2 PUSH1 0x5 PUSH1 0x0 DUP7 PUSH20 0xFFFFFFFFFFFFFFFFFFFFFFFFFFFFFFFFFFFFFFFF AND PUSH20 0xFFFFFFFFFFFFFFFFFFFFFFFFFFFFFFFFFFFFFFFF AND DUP2 MSTORE PUSH1 0x20 ADD SWAP1 DUP2 MSTORE PUSH1 0x20 ADD PUSH1 0x0 KECCAK256 PUSH1 0x0 CALLER PUSH20 0xFFFFFFFFFFFFFFFFFFFFFFFFFFFFFFFFFFFFFFFF AND PUSH20 0xFFFFFFFFFFFFFFFFFFFFFFFFFFFFFFFFFFFFFFFF AND DUP2 MSTORE PUSH1 0x20 ADD SWAP1 DUP2 MSTORE PUSH1 0x20 ADD PUSH1 0x0 KECCAK256 PUSH1 0x0 DUP3 DUP3 SLOAD PUSH2 0x6B9 SWAP2 SWAP1 PUSH2 0x1122 JUMP JUMPDEST SWAP3 POP POP DUP2 SWAP1 SSTORE POP PUSH2 0x6CB DUP5 DUP5 DUP5 PUSH2 0x97E JUMP JUMPDEST PUSH1 0x1 SWAP1 POP SWAP4 SWAP3 POP POP POP JUMP JUMPDEST PUSH1 0x2 PUSH1 0x0 SWAP1 SLOAD SWAP1 PUSH2 0x100 EXP SWAP1 DIV PUSH1 0xFF AND DUP2 JUMP JUMPDEST PUSH1 0x6 PUSH1 0x0 DUP4 PUSH20 0xFFFFFFFFFFFFFFFFFFFFFFFFFFFFFFFFFFFFFFFF AND PUSH20 0xFFFFFFFFFFFFFFFFFFFFFFFFFFFFFFFFFFFFFFFF AND DUP2 MSTORE PUSH1 0x20 ADD SWAP1 DUP2 MSTORE PUSH1 0x20 ADD PUSH1 0x0 KECCAK256 PUSH1 0x0 SWAP1 SLOAD SWAP1 PUSH2 0x100 EXP SWAP1 DIV PUSH1 0xFF AND PUSH2 0x73F JUMPI PUSH1 0x0 DUP1 REVERT JUMPDEST DUP1 PUSH1 0x7 PUSH1 0x0 DUP5 PUSH20 0xFFFFFFFFFFFFFFFFFFFFFFFFFFFFFFFFFFFFFFFF AND PUSH20 0xFFFFFFFFFFFFFFFFFFFFFFFFFFFFFFFFFFFFFFFF AND DUP2 MSTORE PUSH1 0x20 ADD SWAP1 DUP2 MSTORE PUSH1 0x20 ADD PUSH1 0x0 KECCAK256 PUSH1 0x0 DUP3 DUP3 SLOAD PUSH2 0x78E SWAP2 SWAP1 PUSH2 0x1041 JUMP JUMPDEST SWAP3 POP POP DUP2 SWAP1 SSTORE POP POP POP JUMP JUMPDEST PUSH1 0x4 PUSH1 0x20 MSTORE DUP1 PUSH1 0x0 MSTORE PUSH1 0x40 PUSH1 0x0 KECCAK256 PUSH1 0x0 SWAP2 POP SWAP1 POP SLOAD DUP2 JUMP JUMPDEST PUSH1 0x1 DUP1 SLOAD PUSH2 0x7BE SWAP1 PUSH2 0x11F7 JUMP JUMPDEST DUP1 PUSH1 0x1F ADD PUSH1 0x20 DUP1 SWAP2 DIV MUL PUSH1 0x20 ADD PUSH1 0x40 MLOAD SWAP1 DUP2 ADD PUSH1 0x40 MSTORE DUP1 SWAP3 SWAP2 SWAP1 DUP2 DUP2 MSTORE PUSH1 0x20 ADD DUP3 DUP1 SLOAD PUSH2 0x7EA SWAP1 PUSH2 0x11F7 JUMP JUMPDEST DUP1 ISZERO PUSH2 0x837 JUMPI DUP1 PUSH1 0x1F LT PUSH2 0x80C JUMPI PUSH2 0x100 DUP1 DUP4 SLOAD DIV MUL DUP4 MSTORE SWAP2 PUSH1 0x20 ADD SWAP2 PUSH2 0x837 JUMP JUMPDEST DUP3 ADD SWAP2 SWAP1 PUSH1 0x0 MSTORE PUSH1 0x20 PUSH1 0x0 KECCAK256 SWAP1 JUMPDEST DUP2 SLOAD DUP2 MSTORE SWAP1 PUSH1 0x1 ADD SWAP1 PUSH1 0x20 ADD DUP1 DUP4 GT PUSH2 0x81A JUMPI DUP3 SWAP1 SUB PUSH1 0x1F AND DUP3 ADD SWAP2 JUMPDEST POP POP POP POP POP DUP2 JUMP JUMPDEST PUSH1 0x6 PUSH1 0x20 MSTORE DUP1 PUSH1 0x0 MSTORE PUSH1 0x40 PUSH1 0x0 KECCAK256 PUSH1 0x0 SWAP2 POP SLOAD SWAP1 PUSH2 0x100 EXP SWAP1 DIV PUSH1 0xFF AND DUP2 JUMP JUMPDEST PUSH1 0x0 PUSH2 0x86C CALLER DUP5 DUP5 PUSH2 0x97E JUMP JUMPDEST PUSH1 0x1 SWAP1 POP SWAP3 SWAP2 POP POP JUMP JUMPDEST PUSH1 0x5 PUSH1 0x20 MSTORE DUP2 PUSH1 0x0 MSTORE PUSH1 0x40 PUSH1 0x0 KECCAK256 PUSH1 0x20 MSTORE DUP1 PUSH1 0x0 MSTORE PUSH1 0x40 PUSH1 0x0 KECCAK256 PUSH1 0x0 SWAP2 POP SWAP2 POP POP SLOAD DUP2 JUMP JUMPDEST PUSH1 0x6 PUSH1 0x0 DUP3 PUSH20 0xFFFFFFFFFFFFFFFFFFFFFFFFFFFFFFFFFFFFFFFF AND PUSH20 0xFFFFFFFFFFFFFFFFFFFFFFFFFFFFFFFFFFFFFFFF AND DUP2 MSTORE PUSH1 0x20 ADD SWAP1 DUP2 MSTORE PUSH1 0x20 ADD PUSH1 0x0 KECCAK256 PUSH1 0x0 SWAP1 SLOAD SWAP1 PUSH2 0x100 EXP SWAP1 DIV PUSH1 0xFF AND PUSH2 0x8F1 JUMPI PUSH1 0x0 DUP1 REVERT JUMPDEST PUSH1 0x0 PUSH2 0x1F4 PUSH2 0x2710 PUSH1 0x7 PUSH1 0x0 DUP6 PUSH20 0xFFFFFFFFFFFFFFFFFFFFFFFFFFFFFFFFFFFFFFFF AND PUSH20 0xFFFFFFFFFFFFFFFFFFFFFFFFFFFFFFFFFFFFFFFF AND DUP2 MSTORE PUSH1 0x20 ADD SWAP1 DUP2 MSTORE PUSH1 0x20 ADD PUSH1 0x0 KECCAK256 SLOAD PUSH2 0x943 SWAP2 SWAP1 PUSH2 0x10C8 JUMP JUMPDEST PUSH2 0x94D SWAP2 SWAP1 PUSH2 0x1097 JUMP JUMPDEST SWAP1 POP PUSH1 0x0 PUSH2 0x2710 PUSH1 0x3 SLOAD DUP4 PUSH2 0x962 SWAP2 SWAP1 PUSH2 0x10C8 JUMP JUMPDEST PUSH2 0x96C SWAP2 SWAP1 PUSH2 0x1097 JUMP JUMPDEST SWAP1 POP PUSH2 0x979 CALLER DUP5 DUP4 PUSH2 0x97E JUMP JUMPDEST POP POP POP JUMP JUMPDEST PUSH1 0x0 PUSH20 0xFFFFFFFFFFFFFFFFFFFFFFFFFFFFFFFFFFFFFFFF AND DUP3 PUSH20 0xFFFFFFFFFFFFFFFFFFFFFFFFFFFFFFFFFFFFFFFF AND EQ ISZERO PUSH2 0x9B8 JUMPI PUSH1 0x0 DUP1 REVERT JUMPDEST DUP1 PUSH1 0x4 PUSH1 0x0 DUP6 PUSH20 0xFFFFFFFFFFFFFFFFFFFFFFFFFFFFFFFFFFFFFFFF AND PUSH20 0xFFFFFFFFFFFFFFFFFFFFFFFFFFFFFFFFFFFFFFFF AND DUP2 MSTORE PUSH1 0x20 ADD SWAP1 DUP2 MSTORE PUSH1 0x20 ADD PUSH1 0x0 KECCAK256 SLOAD LT ISZERO PUSH2 0xA04 JUMPI PUSH1 0x0 DUP1 REVERT JUMPDEST PUSH1 0x4 PUSH1 0x0 DUP4 PUSH20 0xFFFFFFFFFFFFFFFFFFFFFFFFFFFFFFFFFFFFFFFF AND PUSH20 0xFFFFFFFFFFFFFFFFFFFFFFFFFFFFFFFFFFFFFFFF AND DUP2 MSTORE PUSH1 0x20 ADD SWAP1 DUP2 MSTORE PUSH1 0x20 ADD PUSH1 0x0 KECCAK256 SLOAD DUP2 PUSH1 0x4 PUSH1 0x0 DUP6 PUSH20 0xFFFFFFFFFFFFFFFFFFFFFFFFFFFFFFFFFFFFFFFF AND PUSH20 0xFFFFFFFFFFFFFFFFFFFFFFFFFFFFFFFFFFFFFFFF AND DUP2 MSTORE PUSH1 0x20 ADD SWAP1 DUP2 MSTORE PUSH1 0x20 ADD PUSH1 0x0 KECCAK256 SLOAD PUSH2 0xA8F SWAP2 SWAP1 PUSH2 0x1041 JUMP JUMPDEST LT ISZERO PUSH2 0xA9A JUMPI PUSH1 0x0 DUP1 REVERT JUMPDEST PUSH1 0x0 PUSH1 0x4 PUSH1 0x0 DUP5 PUSH20 0xFFFFFFFFFFFFFFFFFFFFFFFFFFFFFFFFFFFFFFFF AND PUSH20 0xFFFFFFFFFFFFFFFFFFFFFFFFFFFFFFFFFFFFFFFF AND DUP2 MSTORE PUSH1 0x20 ADD SWAP1 DUP2 MSTORE PUSH1 0x20 ADD PUSH1 0x0 KECCAK256 SLOAD PUSH1 0x4 PUSH1 0x0 DUP7 PUSH20 0xFFFFFFFFFFFFFFFFFFFFFFFFFFFFFFFFFFFFFFFF AND PUSH20 0xFFFFFFFFFFFFFFFFFFFFFFFFFFFFFFFFFFFFFFFF AND DUP2 MSTORE PUSH1 0x20 ADD SWAP1 DUP2 MSTORE PUSH1 0x20 ADD PUSH1 0x0 KECCAK256 SLOAD PUSH2 0xB26 SWAP2 SWAP1 PUSH2 0x1041 JUMP JUMPDEST SWAP1 POP DUP2 PUSH1 0x4 PUSH1 0x0 DUP7 PUSH20 0xFFFFFFFFFFFFFFFFFFFFFFFFFFFFFFFFFFFFFFFF AND PUSH20 0xFFFFFFFFFFFFFFFFFFFFFFFFFFFFFFFFFFFFFFFF AND DUP2 MSTORE PUSH1 0x20 ADD SWAP1 DUP2 MSTORE PUSH1 0x20 ADD PUSH1 0x0 KECCAK256 PUSH1 0x0 DUP3 DUP3 SLOAD PUSH2 0xB77 SWAP2 SWAP1 PUSH2 0x1122 JUMP JUMPDEST SWAP3 POP POP DUP2 SWAP1 SSTORE POP DUP2 PUSH1 0x4 PUSH1 0x0 DUP6 PUSH20 0xFFFFFFFFFFFFFFFFFFFFFFFFFFFFFFFFFFFFFFFF AND PUSH20 0xFFFFFFFFFFFFFFFFFFFFFFFFFFFFFFFFFFFFFFFF AND DUP2 MSTORE PUSH1 0x20 ADD SWAP1 DUP2 MSTORE PUSH1 0x20 ADD PUSH1 0x0 KECCAK256 PUSH1 0x0 DUP3 DUP3 SLOAD PUSH2 0xBCD SWAP2 SWAP1 PUSH2 0x1041 JUMP JUMPDEST SWAP3 POP POP DUP2 SWAP1 SSTORE POP DUP3 PUSH20 0xFFFFFFFFFFFFFFFFFFFFFFFFFFFFFFFFFFFFFFFF AND DUP5 PUSH20 0xFFFFFFFFFFFFFFFFFFFFFFFFFFFFFFFFFFFFFFFF AND PUSH32 0xDDF252AD1BE2C89B69C2B068FC378DAA952BA7F163C4A11628F55A4DF523B3EF DUP5 PUSH1 0x40 MLOAD PUSH2 0xC31 SWAP2 SWAP1 PUSH2 0xF99 JUMP JUMPDEST PUSH1 0x40 MLOAD DUP1 SWAP2 SUB SWAP1 LOG3 DUP1 PUSH1 0x4 PUSH1 0x0 DUP6 PUSH20 0xFFFFFFFFFFFFFFFFFFFFFFFFFFFFFFFFFFFFFFFF AND PUSH20 0xFFFFFFFFFFFFFFFFFFFFFFFFFFFFFFFFFFFFFFFF AND DUP2 MSTORE PUSH1 0x20 ADD SWAP1 DUP2 MSTORE PUSH1 0x20 ADD PUSH1 0x0 KECCAK256 SLOAD PUSH1 0x4 PUSH1 0x0 DUP8 PUSH20 0xFFFFFFFFFFFFFFFFFFFFFFFFFFFFFFFFFFFFFFFF AND PUSH20 0xFFFFFFFFFFFFFFFFFFFFFFFFFFFFFFFFFFFFFFFF AND DUP2 MSTORE PUSH1 0x20 ADD SWAP1 DUP2 MSTORE PUSH1 0x20 ADD PUSH1 0x0 KECCAK256 SLOAD PUSH2 0xCC4 SWAP2 SWAP1 PUSH2 0x1041 JUMP JUMPDEST EQ PUSH2 0xCD2 JUMPI PUSH2 0xCD1 PUSH2 0x125A JUMP JUMPDEST JUMPDEST POP POP POP POP JUMP JUMPDEST PUSH1 0x0 PUSH2 0xCEB PUSH2 0xCE6 DUP5 PUSH2 0xFF4 JUMP JUMPDEST PUSH2 0xFCF JUMP JUMPDEST SWAP1 POP DUP3 DUP2 MSTORE PUSH1 0x20 DUP2 ADD DUP5 DUP5 DUP5 ADD GT ISZERO PUSH2 0xD07 JUMPI PUSH2 0xD06 PUSH2 0x134A JUMP JUMPDEST JUMPDEST PUSH2 0xD12 DUP5 DUP3 DUP6 PUSH2 0x11B5 JUMP JUMPDEST POP SWAP4 SWAP3 POP POP POP JUMP JUMPDEST PUSH1 0x0 DUP2 CALLDATALOAD SWAP1 POP PUSH2 0xD29 DUP2 PUSH2 0x136A JUMP JUMPDEST SWAP3 SWAP2 POP POP JUMP JUMPDEST PUSH1 0x0 DUP2 CALLDATALOAD SWAP1 POP PUSH2 0xD3E DUP2 PUSH2 0x1381 JUMP JUMPDEST SWAP3 SWAP2 POP POP JUMP JUMPDEST PUSH1 0x0 DUP3 PUSH1 0x1F DUP4 ADD SLT PUSH2 0xD59 JUMPI PUSH2 0xD58 PUSH2 0x1345 JUMP JUMPDEST JUMPDEST DUP2 CALLDATALOAD PUSH2 0xD69 DUP5 DUP3 PUSH1 0x20 DUP7 ADD PUSH2 0xCD8 JUMP JUMPDEST SWAP2 POP POP SWAP3 SWAP2 POP POP JUMP JUMPDEST PUSH1 0x0 DUP2 CALLDATALOAD SWAP1 POP PUSH2 0xD81 DUP2 PUSH2 0x1398 JUMP JUMPDEST SWAP3 SWAP2 POP POP JUMP JUMPDEST PUSH1 0x0 PUSH1 0x20 DUP3 DUP5 SUB SLT ISZERO PUSH2 0xD9D JUMPI PUSH2 0xD9C PUSH2 0x1354 JUMP JUMPDEST JUMPDEST PUSH1 0x0 PUSH2 0xDAB DUP5 DUP3 DUP6 ADD PUSH2 0xD1A JUMP JUMPDEST SWAP2 POP POP SWAP3 SWAP2 POP POP JUMP JUMPDEST PUSH1 0x0 DUP1 PUSH1 0x40 DUP4 DUP6 SUB SLT ISZERO PUSH2 0xDCB JUMPI PUSH2 0xDCA PUSH2 0x1354 JUMP JUMPDEST JUMPDEST PUSH1 0x0 PUSH2 0xDD9 DUP6 DUP3 DUP7 ADD PUSH2 0xD1A JUMP JUMPDEST SWAP3 POP POP PUSH1 0x20 PUSH2 0xDEA DUP6 DUP3 DUP7 ADD PUSH2 0xD1A JUMP JUMPDEST SWAP2 POP POP SWAP3 POP SWAP3 SWAP1 POP JUMP JUMPDEST PUSH1 0x0 DUP1 PUSH1 0x0 PUSH1 0x60 DUP5 DUP7 SUB SLT ISZERO PUSH2 0xE0D JUMPI PUSH2 0xE0C PUSH2 0x1354 JUMP JUMPDEST JUMPDEST PUSH1 0x0 PUSH2 0xE1B DUP7 DUP3 DUP8 ADD PUSH2 0xD1A JUMP JUMPDEST SWAP4 POP POP PUSH1 0x20 PUSH2 0xE2C DUP7 DUP3 DUP8 ADD PUSH2 0xD1A JUMP JUMPDEST SWAP3 POP POP PUSH1 0x40 PUSH2 0xE3D DUP7 DUP3 DUP8 ADD PUSH2 0xD72 JUMP JUMPDEST SWAP2 POP POP SWAP3 POP SWAP3 POP SWAP3 JUMP JUMPDEST PUSH1 0x0 DUP1 PUSH1 0x0 PUSH1 0x60 DUP5 DUP7 SUB SLT ISZERO PUSH2 0xE60 JUMPI PUSH2 0xE5F PUSH2 0x1354 JUMP JUMPDEST JUMPDEST PUSH1 0x0 PUSH2 0xE6E DUP7 DUP3 DUP8 ADD PUSH2 0xD1A JUMP JUMPDEST SWAP4 POP POP PUSH1 0x20 PUSH2 0xE7F DUP7 DUP3 DUP8 ADD PUSH2 0xD2F JUMP JUMPDEST SWAP3 POP POP PUSH1 0x40 DUP5 ADD CALLDATALOAD PUSH8 0xFFFFFFFFFFFFFFFF DUP2 GT ISZERO PUSH2 0xEA0 JUMPI PUSH2 0xE9F PUSH2 0x134F JUMP JUMPDEST JUMPDEST PUSH2 0xEAC DUP7 DUP3 DUP8 ADD PUSH2 0xD44 JUMP JUMPDEST SWAP2 POP POP SWAP3 POP SWAP3 POP SWAP3 JUMP JUMPDEST PUSH1 0x0 DUP1 PUSH1 0x40 DUP4 DUP6 SUB SLT ISZERO PUSH2 0xECD JUMPI PUSH2 0xECC PUSH2 0x1354 JUMP JUMPDEST JUMPDEST PUSH1 0x0 PUSH2 0xEDB DUP6 DUP3 DUP7 ADD PUSH2 0xD1A JUMP JUMPDEST SWAP3 POP POP PUSH1 0x20 PUSH2 0xEEC DUP6 DUP3 DUP7 ADD PUSH2 0xD72 JUMP JUMPDEST SWAP2 POP POP SWAP3 POP SWAP3 SWAP1 POP JUMP JUMPDEST PUSH2 0xEFF DUP2 PUSH2 0x1168 JUMP JUMPDEST DUP3 MSTORE POP POP JUMP JUMPDEST PUSH1 0x0 PUSH2 0xF10 DUP3 PUSH2 0x1025 JUMP JUMPDEST PUSH2 0xF1A DUP2 DUP6 PUSH2 0x1030 JUMP JUMPDEST SWAP4 POP PUSH2 0xF2A DUP2 DUP6 PUSH1 0x20 DUP7 ADD PUSH2 0x11C4 JUMP JUMPDEST PUSH2 0xF33 DUP2 PUSH2 0x1359 JUMP JUMPDEST DUP5 ADD SWAP2 POP POP SWAP3 SWAP2 POP POP JUMP JUMPDEST PUSH2 0xF47 DUP2 PUSH2 0x119E JUMP JUMPDEST DUP3 MSTORE POP POP JUMP JUMPDEST PUSH2 0xF56 DUP2 PUSH2 0x11A8 JUMP JUMPDEST DUP3 MSTORE POP POP JUMP JUMPDEST PUSH1 0x0 PUSH1 0x20 DUP3 ADD SWAP1 POP PUSH2 0xF71 PUSH1 0x0 DUP4 ADD DUP5 PUSH2 0xEF6 JUMP JUMPDEST SWAP3 SWAP2 POP POP JUMP JUMPDEST PUSH1 0x0 PUSH1 0x20 DUP3 ADD SWAP1 POP DUP2 DUP2 SUB PUSH1 0x0 DUP4 ADD MSTORE PUSH2 0xF91 DUP2 DUP5 PUSH2 0xF05 JUMP JUMPDEST SWAP1 POP SWAP3 SWAP2 POP POP JUMP JUMPDEST PUSH1 0x0 PUSH1 0x20 DUP3 ADD SWAP1 POP PUSH2 0xFAE PUSH1 0x0 DUP4 ADD DUP5 PUSH2 0xF3E JUMP JUMPDEST SWAP3 SWAP2 POP POP JUMP JUMPDEST PUSH1 0x0 PUSH1 0x20 DUP3 ADD SWAP1 POP PUSH2 0xFC9 PUSH1 0x0 DUP4 ADD DUP5 PUSH2 0xF4D JUMP JUMPDEST SWAP3 SWAP2 POP POP JUMP JUMPDEST PUSH1 0x0 PUSH2 0xFD9 PUSH2 0xFEA JUMP JUMPDEST SWAP1 POP PUSH2 0xFE5 DUP3 DUP3 PUSH2 0x1229 JUMP JUMPDEST SWAP2 SWAP1 POP JUMP JUMPDEST PUSH1 0x0 PUSH1 0x40 MLOAD SWAP1 POP SWAP1 JUMP JUMPDEST PUSH1 0x0 PUSH8 0xFFFFFFFFFFFFFFFF DUP3 GT ISZERO PUSH2 0x100F JUMPI PUSH2 0x100E PUSH2 0x1316 JUMP JUMPDEST JUMPDEST PUSH2 0x1018 DUP3 PUSH2 0x1359 JUMP JUMPDEST SWAP1 POP PUSH1 0x20 DUP2 ADD SWAP1 POP SWAP2 SWAP1 POP JUMP JUMPDEST PUSH1 0x0 DUP2 MLOAD SWAP1 POP SWAP2 SWAP1 POP JUMP JUMPDEST PUSH1 0x0 DUP3 DUP3 MSTORE PUSH1 0x20 DUP3 ADD SWAP1 POP SWAP3 SWAP2 POP POP JUMP JUMPDEST PUSH1 0x0 PUSH2 0x104C DUP3 PUSH2 0x119E JUMP JUMPDEST SWAP2 POP PUSH2 0x1057 DUP4 PUSH2 0x119E JUMP JUMPDEST SWAP3 POP DUP3 PUSH32 0xFFFFFFFFFFFFFFFFFFFFFFFFFFFFFFFFFFFFFFFFFFFFFFFFFFFFFFFFFFFFFFFF SUB DUP3 GT ISZERO PUSH2 0x108C JUMPI PUSH2 0x108B PUSH2 0x1289 JUMP JUMPDEST JUMPDEST DUP3 DUP3 ADD SWAP1 POP SWAP3 SWAP2 POP POP JUMP JUMPDEST PUSH1 0x0 PUSH2 0x10A2 DUP3 PUSH2 0x119E JUMP JUMPDEST SWAP2 POP PUSH2 0x10AD DUP4 PUSH2 0x119E JUMP JUMPDEST SWAP3 POP DUP3 PUSH2 0x10BD JUMPI PUSH2 0x10BC PUSH2 0x12B8 JUMP JUMPDEST JUMPDEST DUP3 DUP3 DIV SWAP1 POP SWAP3 SWAP2 POP POP JUMP JUMPDEST PUSH1 0x0 PUSH2 0x10D3 DUP3 PUSH2 0x119E JUMP JUMPDEST SWAP2 POP PUSH2 0x10DE DUP4 PUSH2 0x119E JUMP JUMPDEST SWAP3 POP DUP2 PUSH32 0xFFFFFFFFFFFFFFFFFFFFFFFFFFFFFFFFFFFFFFFFFFFFFFFFFFFFFFFFFFFFFFFF DIV DUP4 GT DUP3 ISZERO ISZERO AND ISZERO PUSH2 0x1117 JUMPI PUSH2 0x1116 PUSH2 0x1289 JUMP JUMPDEST JUMPDEST DUP3 DUP3 MUL SWAP1 POP SWAP3 SWAP2 POP POP JUMP JUMPDEST PUSH1 0x0 PUSH2 0x112D DUP3 PUSH2 0x119E JUMP JUMPDEST SWAP2 POP PUSH2 0x1138 DUP4 PUSH2 0x119E JUMP JUMPDEST SWAP3 POP DUP3 DUP3 LT ISZERO PUSH2 0x114B JUMPI PUSH2 0x114A PUSH2 0x1289 JUMP JUMPDEST JUMPDEST DUP3 DUP3 SUB SWAP1 POP SWAP3 SWAP2 POP POP JUMP JUMPDEST PUSH1 0x0 PUSH2 0x1161 DUP3 PUSH2 0x117E JUMP JUMPDEST SWAP1 POP SWAP2 SWAP1 POP JUMP JUMPDEST PUSH1 0x0 DUP2 ISZERO ISZERO SWAP1 POP SWAP2 SWAP1 POP JUMP JUMPDEST PUSH1 0x0 DUP2 SWAP1 POP SWAP2 SWAP1 POP JUMP JUMPDEST PUSH1 0x0 PUSH20 0xFFFFFFFFFFFFFFFFFFFFFFFFFFFFFFFFFFFFFFFF DUP3 AND SWAP1 POP SWAP2 SWAP1 POP JUMP JUMPDEST PUSH1 0x0 DUP2 SWAP1 POP SWAP2 SWAP1 POP JUMP JUMPDEST PUSH1 0x0 PUSH1 0xFF DUP3 AND SWAP1 POP SWAP2 SWAP1 POP JUMP JUMPDEST DUP3 DUP2 DUP4 CALLDATACOPY PUSH1 0x0 DUP4 DUP4 ADD MSTORE POP POP POP JUMP JUMPDEST PUSH1 0x0 JUMPDEST DUP4 DUP2 LT ISZERO PUSH2 0x11E2 JUMPI DUP1 DUP3 ADD MLOAD DUP2 DUP5 ADD MSTORE PUSH1 0x20 DUP2 ADD SWAP1 POP PUSH2 0x11C7 JUMP JUMPDEST DUP4 DUP2 GT ISZERO PUSH2 0x11F1 JUMPI PUSH1 0x0 DUP5 DUP5 ADD MSTORE JUMPDEST POP POP POP POP JUMP JUMPDEST PUSH1 0x0 PUSH1 0x2 DUP3 DIV SWAP1 POP PUSH1 0x1 DUP3 AND DUP1 PUSH2 0x120F JUMPI PUSH1 0x7F DUP3 AND SWAP2 POP JUMPDEST PUSH1 0x20 DUP3 LT DUP2 EQ ISZERO PUSH2 0x1223 JUMPI PUSH2 0x1222 PUSH2 0x12E7 JUMP JUMPDEST JUMPDEST POP SWAP2 SWAP1 POP JUMP JUMPDEST PUSH2 0x1232 DUP3 PUSH2 0x1359 JUMP JUMPDEST DUP2 ADD DUP2 DUP2 LT PUSH8 0xFFFFFFFFFFFFFFFF DUP3 GT OR ISZERO PUSH2 0x1251 JUMPI PUSH2 0x1250 PUSH2 0x1316 JUMP JUMPDEST JUMPDEST DUP1 PUSH1 0x40 MSTORE POP POP POP JUMP JUMPDEST PUSH32 0x4E487B7100000000000000000000000000000000000000000000000000000000 PUSH1 0x0 MSTORE PUSH1 0x1 PUSH1 0x4 MSTORE PUSH1 0x24 PUSH1 0x0 REVERT JUMPDEST PUSH32 0x4E487B7100000000000000000000000000000000000000000000000000000000 PUSH1 0x0 MSTORE PUSH1 0x11 PUSH1 0x4 MSTORE PUSH1 0x24 PUSH1 0x0 REVERT JUMPDEST PUSH32 0x4E487B7100000000000000000000000000000000000000000000000000000000 PUSH1 0x0 MSTORE PUSH1 0x12 PUSH1 0x4 MSTORE PUSH1 0x24 PUSH1 0x0 REVERT JUMPDEST PUSH32 0x4E487B7100000000000000000000000000000000000000000000000000000000 PUSH1 0x0 MSTORE PUSH1 0x22 PUSH1 0x4 MSTORE PUSH1 0x24 PUSH1 0x0 REVERT JUMPDEST PUSH32 0x4E487B7100000000000000000000000000000000000000000000000000000000 PUSH1 0x0 MSTORE PUSH1 0x41 PUSH1 0x4 MSTORE PUSH1 0x24 PUSH1 0x0 REVERT JUMPDEST PUSH1 0x0 DUP1 REVERT JUMPDEST PUSH1 0x0 DUP1 REVERT JUMPDEST PUSH1 0x0 DUP1 REVERT JUMPDEST PUSH1 0x0 DUP1 REVERT JUMPDEST PUSH1 0x0 PUSH1 0x1F NOT PUSH1 0x1F DUP4 ADD AND SWAP1 POP SWAP2 SWAP1 POP JUMP JUMPDEST PUSH2 0x1373 DUP2 PUSH2 0x1156 JUMP JUMPDEST DUP2 EQ PUSH2 0x137E JUMPI PUSH1 0x0 DUP1 REVERT JUMPDEST POP JUMP JUMPDEST PUSH2 0x138A DUP2 PUSH2 0x1174 JUMP JUMPDEST DUP2 EQ PUSH2 0x1395 JUMPI PUSH1 0x0 DUP1 REVERT JUMPDEST POP JUMP JUMPDEST PUSH2 0x13A1 DUP2 PUSH2 0x119E JUMP JUMPDEST DUP2 EQ PUSH2 0x13AC JUMPI PUSH1 0x0 DUP1 REVERT JUMPDEST POP JUMP INVALID LOG2 PUSH5 0x6970667358 0x22 SLT KECCAK256 0x4F 0xDB CODECOPY 0xCB COINBASE PUSH27 0x662D68909F725B8AABE351670C4A7147A42D3E6A0EA2DEB777BD64 PUSH20 0x6F6C634300080700330000000000000000000000 "
				},
				"gasEstimates": {
					"creation": {
						"codeDepositCost": "1018600",
						"executionCost": "infinite",
						"totalCost": "infinite"
					},
					"external": {
						"addMarks(address,uint256)": "infinite",
						"addStudentRecord(address,int256,string)": "infinite",
						"allowance(address,address)": "infinite",
						"approve(address,uint256)": "infinite",
						"balanceOf(address)": "2859",
						"decimals()": "2560",
						"marks(address)": "2859",
						"name()": "infinite",
						"rewardTokens(address)": "infinite",
						"students(address)": "2867",
						"symbol()": "infinite",
						"totalSupply()": "2452",
						"transfer(address,uint256)": "infinite",
						"transferFrom(address,address,uint256)": "infinite"
					},
					"internal": {
						"_transfer(address,address,uint256)": "infinite"
					}
				},
				"methodIdentifiers": {
					"addMarks(address,uint256)": "61990fdc",
					"addStudentRecord(address,int256,string)": "0aab30a9",
					"allowance(address,address)": "dd62ed3e",
					"approve(address,uint256)": "095ea7b3",
					"balanceOf(address)": "70a08231",
					"decimals()": "313ce567",
					"marks(address)": "1b1a1e24",
					"name()": "06fdde03",
					"rewardTokens(address)": "f5ab16cc",
					"students(address)": "a6c807a9",
					"symbol()": "95d89b41",
					"totalSupply()": "18160ddd",
					"transfer(address,uint256)": "a9059cbb",
					"transferFrom(address,address,uint256)": "23b872dd"
				}
			},
			"storageLayout": {
				"storage": [
					{
						"astId": 4,
						"contract": "contracts/test.sol:MyToken",
						"label": "name",
						"offset": 0,
						"slot": "0",
						"type": "t_string_storage"
					},
					{
						"astId": 7,
						"contract": "contracts/test.sol:MyToken",
						"label": "symbol",
						"offset": 0,
						"slot": "1",
						"type": "t_string_storage"
					},
					{
						"astId": 10,
						"contract": "contracts/test.sol:MyToken",
						"label": "decimals",
						"offset": 0,
						"slot": "2",
						"type": "t_uint8"
					},
					{
						"astId": 20,
						"contract": "contracts/test.sol:MyToken",
						"label": "totalSupply",
						"offset": 0,
						"slot": "3",
						"type": "t_uint256"
					},
					{
						"astId": 24,
						"contract": "contracts/test.sol:MyToken",
						"label": "balanceOf",
						"offset": 0,
						"slot": "4",
						"type": "t_mapping(t_address,t_uint256)"
					},
					{
						"astId": 30,
						"contract": "contracts/test.sol:MyToken",
						"label": "allowance",
						"offset": 0,
						"slot": "5",
						"type": "t_mapping(t_address,t_mapping(t_address,t_uint256))"
					},
					{
						"astId": 34,
						"contract": "contracts/test.sol:MyToken",
						"label": "students",
						"offset": 0,
						"slot": "6",
						"type": "t_mapping(t_address,t_bool)"
					},
					{
						"astId": 38,
						"contract": "contracts/test.sol:MyToken",
						"label": "marks",
						"offset": 0,
						"slot": "7",
						"type": "t_mapping(t_address,t_uint256)"
					}
				],
				"types": {
					"t_address": {
						"encoding": "inplace",
						"label": "address",
						"numberOfBytes": "20"
					},
					"t_bool": {
						"encoding": "inplace",
						"label": "bool",
						"numberOfBytes": "1"
					},
					"t_mapping(t_address,t_bool)": {
						"encoding": "mapping",
						"key": "t_address",
						"label": "mapping(address => bool)",
						"numberOfBytes": "32",
						"value": "t_bool"
					},
					"t_mapping(t_address,t_mapping(t_address,t_uint256))": {
						"encoding": "mapping",
						"key": "t_address",
						"label": "mapping(address => mapping(address => uint256))",
						"numberOfBytes": "32",
						"value": "t_mapping(t_address,t_uint256)"
					},
					"t_mapping(t_address,t_uint256)": {
						"encoding": "mapping",
						"key": "t_address",
						"label": "mapping(address => uint256)",
						"numberOfBytes": "32",
						"value": "t_uint256"
					},
					"t_string_storage": {
						"encoding": "bytes",
						"label": "string",
						"numberOfBytes": "32"
					},
					"t_uint256": {
						"encoding": "inplace",
						"label": "uint256",
						"numberOfBytes": "32"
					},
					"t_uint8": {
						"encoding": "inplace",
						"label": "uint8",
						"numberOfBytes": "1"
					}
				}
			},
			"userdoc": {
				"kind": "user",
				"methods": {},
				"version": 1
			}
		}
	}
}